{
  "contractName": "Bidding",
  "abi": [
    {
      "inputs": [
        {
          "internalType": "address",
          "name": "token",
          "type": "address"
        },
        {
          "internalType": "address",
          "name": "nft",
          "type": "address"
        }
      ],
      "stateMutability": "nonpayable",
      "type": "constructor"
    },
    {
      "anonymous": false,
      "inputs": [
        {
          "indexed": false,
          "internalType": "uint256",
          "name": "tokenId",
          "type": "uint256"
        },
        {
          "indexed": false,
          "internalType": "uint256",
          "name": "price",
          "type": "uint256"
        }
      ],
      "name": "Bid",
      "type": "event"
    },
    {
      "anonymous": false,
      "inputs": [
        {
          "indexed": false,
          "internalType": "uint256",
          "name": "tokenId",
          "type": "uint256"
        },
        {
          "indexed": false,
          "internalType": "uint256",
          "name": "price",
          "type": "uint256"
        }
      ],
      "name": "Finalize",
      "type": "event"
    },
    {
      "inputs": [],
      "name": "brand",
      "outputs": [
        {
          "internalType": "string",
          "name": "",
          "type": "string"
        }
      ],
      "stateMutability": "view",
      "type": "function"
    },
    {
      "inputs": [],
      "name": "myString",
      "outputs": [
        {
          "internalType": "string",
          "name": "",
          "type": "string"
        }
      ],
      "stateMutability": "view",
      "type": "function"
    },
    {
      "inputs": [
        {
          "internalType": "uint256",
          "name": "tokenId",
          "type": "uint256"
        },
        {
          "internalType": "uint256",
          "name": "start_price",
          "type": "uint256"
        }
      ],
      "name": "auction",
      "outputs": [],
      "stateMutability": "nonpayable",
      "type": "function"
    },
    {
      "inputs": [
        {
          "internalType": "uint256",
          "name": "tokenId",
          "type": "uint256"
        }
      ],
      "name": "getAuctionInfo",
      "outputs": [
        {
          "components": [
            {
              "internalType": "address",
              "name": "owner",
              "type": "address"
            },
            {
              "internalType": "address",
              "name": "winner",
              "type": "address"
            },
            {
              "internalType": "uint256",
              "name": "price",
              "type": "uint256"
            }
          ],
          "internalType": "struct Bidding.BiddingInfo",
          "name": "bi",
          "type": "tuple"
        }
      ],
      "stateMutability": "view",
      "type": "function"
    },
    {
      "inputs": [
        {
          "internalType": "uint256",
          "name": "tokenId",
          "type": "uint256"
        },
        {
          "internalType": "uint256",
          "name": "price",
          "type": "uint256"
        }
      ],
      "name": "bidding",
      "outputs": [],
      "stateMutability": "nonpayable",
      "type": "function"
    },
    {
      "inputs": [
        {
          "internalType": "uint256",
          "name": "tokenId",
          "type": "uint256"
        }
      ],
      "name": "finalize",
      "outputs": [],
      "stateMutability": "nonpayable",
      "type": "function"
    }
  ],
  "bytecode": "0x60c0604052601060809081526f13919508109a590810dbdb9d1c9858dd60821b60a05260009062000031908262000163565b5060405180606001604052806025815260200162000af2602591396001906200005b908262000163565b503480156200006957600080fd5b5060405162000b1738038062000b178339810160408190526200008c916200024c565b600280546001600160a01b039384166001600160a01b0319918216179091556003805492909316911617905562000284565b634e487b7160e01b600052604160045260246000fd5b600181811c90821680620000e957607f821691505b6020821081036200010a57634e487b7160e01b600052602260045260246000fd5b50919050565b601f8211156200015e57600081815260208120601f850160051c81016020861015620001395750805b601f850160051c820191505b818110156200015a5782815560010162000145565b5050505b505050565b81516001600160401b038111156200017f576200017f620000be565b6200019781620001908454620000d4565b8462000110565b602080601f831160018114620001cf5760008415620001b65750858301515b600019600386901b1c1916600185901b1785556200015a565b600085815260208120601f198616915b828110156200020057888601518255948401946001909101908401620001df565b50858210156200021f5787850151600019600388901b60f8161c191681555b5050505050600190811b01905550565b80516001600160a01b03811681146200024757600080fd5b919050565b600080604083850312156200026057600080fd5b6200026b836200022f565b91506200027b602084016200022f565b90509250929050565b61085e80620002946000396000f3fe608060405234801561001057600080fd5b50600436106100625760003560e01c806305261aea146100675780632d9fff011461007c578063492bfa181461009a57806387fe412c146100a25780638ea14bfe146100b5578063fc3fc4ed146100c8575b600080fd5b61007a6100753660046106f8565b61010b565b005b6100846102bf565b6040516100919190610711565b60405180910390f35b61008461034d565b61007a6100b0366004610766565b61035a565b61007a6100c3366004610766565b610538565b6100db6100d63660046106f8565b61065d565b6040805182516001600160a01b039081168252602080850151909116908201529181015190820152606001610091565b600081815260046020908152604091829020825160608101845281546001600160a01b03908116808352600184015490911693820184905260029092015493810184905292826101ac5760405162461bcd60e51b815260206004820152602160248201527f5468652062696464696e6720617373657420646f6573206e6f742065786973746044820152607360f81b60648201526084015b60405180910390fd5b600085815260046020819052604080832080546001600160a01b0319908116825560018201805490911690556002019290925560035491516323b872dd60e01b81526001600160a01b03909216916323b872dd9161021091309188918b9101610788565b600060405180830381600087803b15801561022a57600080fd5b505af115801561023e573d6000803e3d6000fd5b505060025460405163a9059cbb60e01b81526001600160a01b03909116925063a9059cbb915061027490859085906004016107ac565b6020604051808303816000875af1158015610293573d6000803e3d6000fd5b505050506040513d601f19601f820116820180604052508101906102b791906107c5565b505050505050565b600080546102cc906107ee565b80601f01602080910402602001604051908101604052809291908181526020018280546102f8906107ee565b80156103455780601f1061031a57610100808354040283529160200191610345565b820191906000526020600020905b81548152906001019060200180831161032857829003601f168201915b505050505081565b600180546102cc906107ee565b600082815260046020908152604091829020825160608101845281546001600160a01b039081168252600183015416928101839052600290910154928101839052918084116103e25760405162461bcd60e51b81526020600482015260146024820152734269642061742061206c6f77657220707269636560601b60448201526064016101a3565b6002546040516323b872dd60e01b81526001600160a01b03909116906323b872dd9061041690339030908990600401610788565b6020604051808303816000875af1158015610435573d6000803e3d6000fd5b505050506040513d601f19601f8201168201806040525081019061045991906107c5565b506001600160a01b038216156104e05760025460405163a9059cbb60e01b81526001600160a01b039091169063a9059cbb9061049b90859085906004016107ac565b6020604051808303816000875af11580156104ba573d6000803e3d6000fd5b505050506040513d601f19601f820116820180604052508101906104de91906107c5565b505b5050336020828101918252604080840194855260009586526004909152909320905181546001600160a01b03199081166001600160a01b03928316178355935160018301805490951691161790925551600290910155565b6000828152600460205260409020546001600160a01b03161561059b5760405162461bcd60e51b815260206004820152601b60248201527a5468652062696e6464696e6720616c72656164792065786973747360281b60448201526064016101a3565b6003546040516323b872dd60e01b81526001600160a01b03909116906323b872dd906105cf90339030908790600401610788565b600060405180830381600087803b1580156105e957600080fd5b505af11580156105fd573d6000803e3d6000fd5b5050505061060b33826106aa565b600092835260046020908152604093849020825181546001600160a01b03199081166001600160a01b039283161783559284015160018301805490941691161790915592015160029092019190915550565b6106656106d8565b50600090815260046020908152604091829020825160608101845281546001600160a01b03908116825260018301541692810192909252600201549181019190915290565b6106b26106d8565b50604080516060810182526001600160a01b039390931683526000602084015282015290565b604080516060810182526000808252602082018190529181019190915290565b60006020828403121561070a57600080fd5b5035919050565b600060208083528351808285015260005b8181101561073e57858101830151858201604001528201610722565b81811115610750576000604083870101525b50601f01601f1916929092016040019392505050565b6000806040838503121561077957600080fd5b50508035926020909101359150565b6001600160a01b039384168152919092166020820152604081019190915260600190565b6001600160a01b03929092168252602082015260400190565b6000602082840312156107d757600080fd5b815180151581146107e757600080fd5b9392505050565b600181811c9082168061080257607f821691505b60208210810361082257634e487b7160e01b600052602260045260246000fd5b5091905056fea2646970667358221220118984dd573e18bf7f19f15ea4ac887c490d25d7fa4d7e0ce280801e14251a5f64736f6c634300080f003357696e6420466f6c6c6f77696e6720446f6727732042696464696e6720436f6e7472616374",
  "immutableReferences": {},
  "source": "// SPDX-License-Identifier: UNLICENSED\npragma solidity ^0.8.0;\nimport \"@openzeppelin/contracts/token/ERC721/IERC721.sol\";\nimport \"@openzeppelin/contracts/token/ERC20/IERC20.sol\";\n\ncontract Bidding {\n  string public brand = \"NFT Bid Contract\";\n  string public myString = \"Wind Following Dog's Bidding Contract\";\n  IERC20 private underlying_token;\n  IERC721 private underlying_nft;\n\n  event Bid(uint256 tokenId, uint256 price);\n  event Finalize(uint256 tokenId, uint256 price);\n\n  struct BiddingInfo {\n    address owner;\n    address winner;\n    uint256 price;\n  }\n\n  mapping (uint256 => BiddingInfo) private _assets;\n\n  constructor(address token, address nft) {\n    underlying_token = IERC20(token);\n    underlying_nft = IERC721(nft);\n  }\n\n  function _bid_entry(address owner, uint256 price) pure private returns (BiddingInfo memory bi) {\n    return BiddingInfo(owner, address(0), price);\n  }\n\n  function auction(uint256 tokenId, uint256 start_price) public {\n    require(_assets[tokenId].owner == address(0), \"The bindding already exists\");\n    underlying_nft.transferFrom(msg.sender, address(this), tokenId);\n    _assets[tokenId] = _bid_entry(msg.sender, start_price);\n  }\n\n  function getAuctionInfo(uint256 tokenId) public view returns (BiddingInfo memory bi) {\n    return _assets[tokenId];\n  }\n\n  function bidding(uint256 tokenId, uint256 price) public {\n    BiddingInfo memory winner = _assets[tokenId];\n    address winner_address = winner.winner;\n    uint256 final_price = winner.price;\n    require (price > final_price, \"Bid at a lower price\");\n\n    // we first have to make sure the sender has enough token to bid\n    underlying_token.transferFrom(msg.sender, address(this), price);\n\n    // return back the final price to the laster bidder *)\n    if (winner_address != address(0)) {\n      // Not the first bidder, return token back to the last bidder\n      underlying_token.transfer(winner_address, final_price);\n    }\n    winner.winner = msg.sender;\n    winner.price = price;\n    _assets[tokenId] = winner;\n  }\n\n\n  function finalize(uint256 tokenId) public {\n    BiddingInfo memory winner = _assets[tokenId];\n    address winner_address = winner.winner;\n    address owner_address = winner.owner;\n    uint256 final_price = winner.price;\n    require (winner_address != address(0), \"The bidding asset does not exists\");\n    delete _assets[tokenId];\n    underlying_nft.transferFrom(address(this), winner_address, tokenId);\n    underlying_token.transfer(owner_address, final_price);\n  }\n}\n",
  "sourcePath": "/home/ruilaizhang/work/zkWasm-protocol/contracts/Bidding.sol",
  "compiler": {
    "name": "solc",
    "version": "0.8.15+commit.e14f2714.Linux.g++"
  },
  "schemaVersion": "3.4.13",
  "updatedAt": "2023-03-24T00:25:41.737Z",
  "devdoc": {
    "kind": "dev",
    "methods": {},
    "version": 1
  },
  "userdoc": {
    "kind": "user",
    "methods": {},
    "version": 1
  }
}