{
  "contractName": "BN256G2",
  "abi": [
    {
      "inputs": [
        {
          "internalType": "uint256",
          "name": "pt1xx",
          "type": "uint256"
        },
        {
          "internalType": "uint256",
          "name": "pt1xy",
          "type": "uint256"
        },
        {
          "internalType": "uint256",
          "name": "pt1yx",
          "type": "uint256"
        },
        {
          "internalType": "uint256",
          "name": "pt1yy",
          "type": "uint256"
        },
        {
          "internalType": "uint256",
          "name": "pt2xx",
          "type": "uint256"
        },
        {
          "internalType": "uint256",
          "name": "pt2xy",
          "type": "uint256"
        },
        {
          "internalType": "uint256",
          "name": "pt2yx",
          "type": "uint256"
        },
        {
          "internalType": "uint256",
          "name": "pt2yy",
          "type": "uint256"
        }
      ],
      "name": "ECTwistAdd",
      "outputs": [
        {
          "internalType": "uint256",
          "name": "",
          "type": "uint256"
        },
        {
          "internalType": "uint256",
          "name": "",
          "type": "uint256"
        },
        {
          "internalType": "uint256",
          "name": "",
          "type": "uint256"
        },
        {
          "internalType": "uint256",
          "name": "",
          "type": "uint256"
        }
      ],
      "stateMutability": "view",
      "type": "function"
    },
    {
      "inputs": [
        {
          "internalType": "uint256",
          "name": "s",
          "type": "uint256"
        },
        {
          "internalType": "uint256",
          "name": "pt1xx",
          "type": "uint256"
        },
        {
          "internalType": "uint256",
          "name": "pt1xy",
          "type": "uint256"
        },
        {
          "internalType": "uint256",
          "name": "pt1yx",
          "type": "uint256"
        },
        {
          "internalType": "uint256",
          "name": "pt1yy",
          "type": "uint256"
        }
      ],
      "name": "ECTwistMul",
      "outputs": [
        {
          "internalType": "uint256",
          "name": "",
          "type": "uint256"
        },
        {
          "internalType": "uint256",
          "name": "",
          "type": "uint256"
        },
        {
          "internalType": "uint256",
          "name": "",
          "type": "uint256"
        },
        {
          "internalType": "uint256",
          "name": "",
          "type": "uint256"
        }
      ],
      "stateMutability": "view",
      "type": "function"
    },
    {
      "inputs": [],
      "name": "GetFieldModulus",
      "outputs": [
        {
          "internalType": "uint256",
          "name": "",
          "type": "uint256"
        }
      ],
      "stateMutability": "pure",
      "type": "function"
    }
  ],
  "bytecode": "0x610b6d61003a600b82828239805160001a60731461002d57634e487b7160e01b600052600060045260246000fd5b30600052607381538281f3fe730000000000000000000000000000000000000000301460806040526004361061004b5760003560e01c806355a3e90f1461005057806361a931ec14610071578063b73ab75d146100a4575b600080fd5b604051600080516020610b1883398151915281526020015b60405180910390f35b61008461007f366004610a12565b6100b7565b604080519485526020850193909352918301526060820152608001610068565b6100846100b2366004610a67565b61020d565b60008080808b1580156100c857508a155b80156100d2575089155b80156100dc575088155b1561012d57871580156100ed575086155b80156100f7575085155b8015610101575084155b61011d5761011188888888610294565b61011d5761011d610aa2565b50869250859150849050836101fe565b87158015610139575086155b8015610143575085155b801561014d575084155b1561017a5761015e8c8c8c8c610294565b61016a5761016a610aa2565b508a9250899150889050876101fe565b6101868c8c8c8c610294565b61019257610192610aa2565b61019e88888888610294565b6101aa576101aa610aa2565b60006101c48d8d8d8d600160008f8f8f8f60016000610349565b90506101f48160005b602090810291909101519083015160408401516060850151608086015160a08701516105d2565b9450945094509450505b98509850985098945050505050565b6000808080600188158015610220575087155b801561022a575086155b8015610234575085155b156102485750600197508795506000610260565b61025489898989610294565b61026057610260610aa2565b60006102728b8b8b8b8b87600061061c565b905061027f8160006101cd565b929e919d509b50909950975050505050505050565b60008060008060006102a88787898961069f565b90945092506102b98989818161069f565b90925090506102ca82828b8b61069f565b90925090506102db84848484610710565b909450925061032b84847f2b149d40ceb8aaae81be18991be06ac3b5b4c5e559dbefa33267e6dc24a138e57e9713b03af0fed4cd2cafadeed8fdf4a74fa084e52d1852e4a2bd0685c315d2610710565b90945092508315801561033c575082155b9998505050505050505050565b6103516109f4565b8815801561035d575087155b1561039f578686868686868660005b60a089019290925260808801929092526060870192909252604086019290925260208581019390935290910201526105c2565b821580156103ab575081155b156103be578c8c8c8c8c8c86600061036c565b6103ca85858b8b61069f565b90955093506103db8b8b858561069f565b606083015260408201526103f187878b8b61069f565b90975095506104028d8d858561069f565b60a0830152608082018190528714801561041f575060a081015186145b156104645760408101518514801561043a5750606081015184145b156104555761044d8d8d8d8d8d8d610752565b86600061036c565b6001600081818080868161036c565b6104708989858561069f565b9093509150610490858583600260200201518460035b6020020151610710565b909d509b506104aa87878360046020020151846005610486565b909b5099506104bb8b8b818161069f565b90995097506104db898983600460200201518460055b602002015161069f565b90955093506104ec89898d8d61069f565b90995097506104fd8989858561069f565b60a083015260808201526105138d8d818161069f565b90975095506105248787858561069f565b909750955061053587878b8b610710565b9097509550610546858560026108c1565b909350915061055787878585610710565b90975095506105688b8b898961069f565b6020830152815261057b85858989610710565b909b50995061058c8d8d8d8d61069f565b909b5099506105a6898983600260200201518460036104d1565b909d509b506105b78b8b8f8f610710565b606083015260408201525b9c9b505050505050505050505050565b6000806000806000806105e588886108f4565b90925090506105f68c8c848461069f565b90965094506106078a8a848461069f565b969d959c509a50949850929650505050505050565b6106246109f4565b8715610694576001881615610665578051602082015160408301516060840151608085015160a08601516106629594939291908d8d8d8d8d8d610349565b90505b610673878787878787610752565b949b5092995090975095509350915061068d600289610ace565b9750610624565b979650505050505050565b6000806106dd600080516020610b18833981519152858809600080516020610b18833981519152858809600080516020610b1883398151915261097f565b600080516020610b1883398151915280868809600080516020610b18833981519152868a09089150915094509492505050565b60008061072c8685600080516020610b1883398151915261097f565b6107458685600080516020610b1883398151915261097f565b9150915094509492505050565b6000806000806000806107678c8c60036108c1565b909650945061077886868e8e61069f565b90965094506107898a8a8a8a61069f565b909850965061079a8c8c8c8c61069f565b90945092506107ab84848a8a61069f565b90945092506107bc8686818161069f565b909c509a506107cd848460086108c1565b90925090506107de8c8c8484610710565b909c509a506107ef8888818161069f565b9092509050610800848460046108c1565b909450925061081184848e8e610710565b90945092506108228484888861069f565b90945092506108338a8a60086108c1565b909650945061084486868c8c61069f565b90965094506108558686848461069f565b909650945061086684848888610710565b90945092506108778c8c60026108c1565b909650945061088886868a8a61069f565b90965094506108998888848461069f565b90925090506108aa828260086108c1565b809250819350505096509650965096509650969050565b600080600080516020610b18833981519152838609600080516020610b1883398151915284860991509150935093915050565b60008080610935600080516020610b1883398151915280878809600080516020610b1883398151915287880908600080516020610b188339815191526109a3565b9050600080516020610b18833981519152818609600080516020610b1883398151915282860961097390600080516020610b18833981519152610af0565b92509250509250929050565b6000818061098f5761098f610ab8565b6109998484610af0565b8508949350505050565b60008060405160208152602080820152602060408201528460608201526002840360808201528360a082015260208160c08360056107d05a03fa905192509050806109ed57600080fd5b5092915050565b6040518060c001604052806006906020820280368337509192915050565b600080600080600080600080610100898b031215610a2f57600080fd5b505086359860208801359850604088013597606081013597506080810135965060a0810135955060c0810135945060e0013592509050565b600080600080600060a08688031215610a7f57600080fd5b505083359560208501359550604085013594606081013594506080013592509050565b634e487b7160e01b600052600160045260246000fd5b634e487b7160e01b600052601260045260246000fd5b600082610aeb57634e487b7160e01b600052601260045260246000fd5b500490565b81810381811115610b1157634e487b7160e01b600052601160045260246000fd5b9291505056fe30644e72e131a029b85045b68181585d97816a916871ca8d3c208c16d87cfd47a2646970667358221220d05836a0b0385968b562a5a62251cec6f800fcbbdd0c10fdf4b72ecf908d760664736f6c63430008110033",
  "immutableReferences": {},
  "source": "// SPDX-License-Identifier: LGPL-3.0-only\n// This file is LGPL3 Licensed\npragma solidity ^0.8.0;\n\n/**\n * @title Elliptic curve operations on twist points for alt_bn128\n * @author Mustafa Al-Bassam (mus@musalbas.com)\n * @dev Homepage: https://github.com/musalbas/solidity-BN256G2\n */\n\nlibrary BN256G2 {\n    uint256 internal constant FIELD_MODULUS = 0x30644e72e131a029b85045b68181585d97816a916871ca8d3c208c16d87cfd47;\n    uint256 internal constant TWISTBX = 0x2b149d40ceb8aaae81be18991be06ac3b5b4c5e559dbefa33267e6dc24a138e5;\n    uint256 internal constant TWISTBY = 0x9713b03af0fed4cd2cafadeed8fdf4a74fa084e52d1852e4a2bd0685c315d2;\n    uint internal constant PTXX = 0;\n    uint internal constant PTXY = 1;\n    uint internal constant PTYX = 2;\n    uint internal constant PTYY = 3;\n    uint internal constant PTZX = 4;\n    uint internal constant PTZY = 5;\n\n    /**\n     * @notice Add two twist points\n     * @param pt1xx Coefficient 1 of x on point 1\n     * @param pt1xy Coefficient 2 of x on point 1\n     * @param pt1yx Coefficient 1 of y on point 1\n     * @param pt1yy Coefficient 2 of y on point 1\n     * @param pt2xx Coefficient 1 of x on point 2\n     * @param pt2xy Coefficient 2 of x on point 2\n     * @param pt2yx Coefficient 1 of y on point 2\n     * @param pt2yy Coefficient 2 of y on point 2\n     * @return (pt3xx, pt3xy, pt3yx, pt3yy)\n     */\n    function ECTwistAdd(\n        uint256 pt1xx, uint256 pt1xy,\n        uint256 pt1yx, uint256 pt1yy,\n        uint256 pt2xx, uint256 pt2xy,\n        uint256 pt2yx, uint256 pt2yy\n    ) public view returns (\n        uint256, uint256,\n        uint256, uint256\n    ) {\n        if (\n            pt1xx == 0 && pt1xy == 0 &&\n            pt1yx == 0 && pt1yy == 0\n        ) {\n            if (!(\n                pt2xx == 0 && pt2xy == 0 &&\n                pt2yx == 0 && pt2yy == 0\n            )) {\n                assert(_isOnCurve(\n                    pt2xx, pt2xy,\n                    pt2yx, pt2yy\n                ));\n            }\n            return (\n                pt2xx, pt2xy,\n                pt2yx, pt2yy\n            );\n        } else if (\n            pt2xx == 0 && pt2xy == 0 &&\n            pt2yx == 0 && pt2yy == 0\n        ) {\n            assert(_isOnCurve(\n                pt1xx, pt1xy,\n                pt1yx, pt1yy\n            ));\n            return (\n                pt1xx, pt1xy,\n                pt1yx, pt1yy\n            );\n        }\n\n        assert(_isOnCurve(\n            pt1xx, pt1xy,\n            pt1yx, pt1yy\n        ));\n        assert(_isOnCurve(\n            pt2xx, pt2xy,\n            pt2yx, pt2yy\n        ));\n\n        uint256[6] memory pt3 = _ECTwistAddJacobian(\n            pt1xx, pt1xy,\n            pt1yx, pt1yy,\n            1,     0,\n            pt2xx, pt2xy,\n            pt2yx, pt2yy,\n            1,     0\n        );\n\n        return _fromJacobian(\n            pt3[PTXX], pt3[PTXY],\n            pt3[PTYX], pt3[PTYY],\n            pt3[PTZX], pt3[PTZY]\n        );\n    }\n\n    /**\n     * @notice Multiply a twist point by a scalar\n     * @param s     Scalar to multiply by\n     * @param pt1xx Coefficient 1 of x\n     * @param pt1xy Coefficient 2 of x\n     * @param pt1yx Coefficient 1 of y\n     * @param pt1yy Coefficient 2 of y\n     * @return (pt2xx, pt2xy, pt2yx, pt2yy)\n     */\n    function ECTwistMul(\n        uint256 s,\n        uint256 pt1xx, uint256 pt1xy,\n        uint256 pt1yx, uint256 pt1yy\n    ) public view returns (\n        uint256, uint256,\n        uint256, uint256\n    ) {\n        uint256 pt1zx = 1;\n        if (\n            pt1xx == 0 && pt1xy == 0 &&\n            pt1yx == 0 && pt1yy == 0\n        ) {\n            pt1xx = 1;\n            pt1yx = 1;\n            pt1zx = 0;\n        } else {\n            assert(_isOnCurve(\n                pt1xx, pt1xy,\n                pt1yx, pt1yy\n            ));\n        }\n\n        uint256[6] memory pt2 = _ECTwistMulJacobian(\n            s,\n            pt1xx, pt1xy,\n            pt1yx, pt1yy,\n            pt1zx, 0\n        );\n\n        return _fromJacobian(\n            pt2[PTXX], pt2[PTXY],\n            pt2[PTYX], pt2[PTYY],\n            pt2[PTZX], pt2[PTZY]\n        );\n    }\n\n    /**\n     * @notice Get the field modulus\n     * @return The field modulus\n     */\n    function GetFieldModulus() public pure returns (uint256) {\n        return FIELD_MODULUS;\n    }\n\n    function submod(uint256 a, uint256 b, uint256 n) internal pure returns (uint256) {\n        return addmod(a, n - b, n);\n    }\n\n    function _FQ2Mul(\n        uint256 xx, uint256 xy,\n        uint256 yx, uint256 yy\n    ) internal pure returns (uint256, uint256) {\n        return (\n            submod(mulmod(xx, yx, FIELD_MODULUS), mulmod(xy, yy, FIELD_MODULUS), FIELD_MODULUS),\n            addmod(mulmod(xx, yy, FIELD_MODULUS), mulmod(xy, yx, FIELD_MODULUS), FIELD_MODULUS)\n        );\n    }\n\n    function _FQ2Muc(\n        uint256 xx, uint256 xy,\n        uint256 c\n    ) internal pure returns (uint256, uint256) {\n        return (\n            mulmod(xx, c, FIELD_MODULUS),\n            mulmod(xy, c, FIELD_MODULUS)\n        );\n    }\n\n    function _FQ2Add(\n        uint256 xx, uint256 xy,\n        uint256 yx, uint256 yy\n    ) internal pure returns (uint256, uint256) {\n        return (\n            addmod(xx, yx, FIELD_MODULUS),\n            addmod(xy, yy, FIELD_MODULUS)\n        );\n    }\n\n    function _FQ2Sub(\n        uint256 xx, uint256 xy,\n        uint256 yx, uint256 yy\n    ) internal pure returns (uint256 rx, uint256 ry) {\n        return (\n            submod(xx, yx, FIELD_MODULUS),\n            submod(xy, yy, FIELD_MODULUS)\n        );\n    }\n\n    function _FQ2Div(\n        uint256 xx, uint256 xy,\n        uint256 yx, uint256 yy\n    ) internal view returns (uint256, uint256) {\n        (yx, yy) = _FQ2Inv(yx, yy);\n        return _FQ2Mul(xx, xy, yx, yy);\n    }\n\n    function _FQ2Inv(uint256 x, uint256 y) internal view returns (uint256, uint256) {\n        uint256 inv = _modInv(addmod(mulmod(y, y, FIELD_MODULUS), mulmod(x, x, FIELD_MODULUS), FIELD_MODULUS), FIELD_MODULUS);\n        return (\n            mulmod(x, inv, FIELD_MODULUS),\n            FIELD_MODULUS - mulmod(y, inv, FIELD_MODULUS)\n        );\n    }\n\n    function _isOnCurve(\n        uint256 xx, uint256 xy,\n        uint256 yx, uint256 yy\n    ) internal pure returns (bool) {\n        uint256 yyx;\n        uint256 yyy;\n        uint256 xxxx;\n        uint256 xxxy;\n        (yyx, yyy) = _FQ2Mul(yx, yy, yx, yy);\n        (xxxx, xxxy) = _FQ2Mul(xx, xy, xx, xy);\n        (xxxx, xxxy) = _FQ2Mul(xxxx, xxxy, xx, xy);\n        (yyx, yyy) = _FQ2Sub(yyx, yyy, xxxx, xxxy);\n        (yyx, yyy) = _FQ2Sub(yyx, yyy, TWISTBX, TWISTBY);\n        return yyx == 0 && yyy == 0;\n    }\n\n    function _modInv(uint256 a, uint256 n) internal view returns (uint256 result) {\n        bool success;\n        assembly {\n            let freemem := mload(0x40)\n            mstore(freemem, 0x20)\n            mstore(add(freemem,0x20), 0x20)\n            mstore(add(freemem,0x40), 0x20)\n            mstore(add(freemem,0x60), a)\n            mstore(add(freemem,0x80), sub(n, 2))\n            mstore(add(freemem,0xA0), n)\n            success := staticcall(sub(gas(), 2000), 5, freemem, 0xC0, freemem, 0x20)\n            result := mload(freemem)\n        }\n        require(success);\n    }\n\n    function _fromJacobian(\n        uint256 pt1xx, uint256 pt1xy,\n        uint256 pt1yx, uint256 pt1yy,\n        uint256 pt1zx, uint256 pt1zy\n    ) internal view returns (\n        uint256 pt2xx, uint256 pt2xy,\n        uint256 pt2yx, uint256 pt2yy\n    ) {\n        uint256 invzx;\n        uint256 invzy;\n        (invzx, invzy) = _FQ2Inv(pt1zx, pt1zy);\n        (pt2xx, pt2xy) = _FQ2Mul(pt1xx, pt1xy, invzx, invzy);\n        (pt2yx, pt2yy) = _FQ2Mul(pt1yx, pt1yy, invzx, invzy);\n    }\n\n    function _ECTwistAddJacobian(\n        uint256 pt1xx, uint256 pt1xy,\n        uint256 pt1yx, uint256 pt1yy,\n        uint256 pt1zx, uint256 pt1zy,\n        uint256 pt2xx, uint256 pt2xy,\n        uint256 pt2yx, uint256 pt2yy,\n        uint256 pt2zx, uint256 pt2zy) internal pure returns (uint256[6] memory pt3) {\n            if (pt1zx == 0 && pt1zy == 0) {\n                (\n                    pt3[PTXX], pt3[PTXY],\n                    pt3[PTYX], pt3[PTYY],\n                    pt3[PTZX], pt3[PTZY]\n                ) = (\n                    pt2xx, pt2xy,\n                    pt2yx, pt2yy,\n                    pt2zx, pt2zy\n                );\n                return pt3;\n            } else if (pt2zx == 0 && pt2zy == 0) {\n                (\n                    pt3[PTXX], pt3[PTXY],\n                    pt3[PTYX], pt3[PTYY],\n                    pt3[PTZX], pt3[PTZY]\n                ) = (\n                    pt1xx, pt1xy,\n                    pt1yx, pt1yy,\n                    pt1zx, pt1zy\n                );\n                return pt3;\n            }\n\n            (pt2yx,     pt2yy)     = _FQ2Mul(pt2yx, pt2yy, pt1zx, pt1zy); // U1 = y2 * z1\n            (pt3[PTYX], pt3[PTYY]) = _FQ2Mul(pt1yx, pt1yy, pt2zx, pt2zy); // U2 = y1 * z2\n            (pt2xx,     pt2xy)     = _FQ2Mul(pt2xx, pt2xy, pt1zx, pt1zy); // V1 = x2 * z1\n            (pt3[PTZX], pt3[PTZY]) = _FQ2Mul(pt1xx, pt1xy, pt2zx, pt2zy); // V2 = x1 * z2\n\n            if (pt2xx == pt3[PTZX] && pt2xy == pt3[PTZY]) {\n                if (pt2yx == pt3[PTYX] && pt2yy == pt3[PTYY]) {\n                    (\n                        pt3[PTXX], pt3[PTXY],\n                        pt3[PTYX], pt3[PTYY],\n                        pt3[PTZX], pt3[PTZY]\n                    ) = _ECTwistDoubleJacobian(pt1xx, pt1xy, pt1yx, pt1yy, pt1zx, pt1zy);\n                    return pt3;\n                }\n                (\n                    pt3[PTXX], pt3[PTXY],\n                    pt3[PTYX], pt3[PTYY],\n                    pt3[PTZX], pt3[PTZY]\n                ) = (\n                    1, 0,\n                    1, 0,\n                    0, 0\n                );\n                return pt3;\n            }\n\n            (pt2zx,     pt2zy)     = _FQ2Mul(pt1zx, pt1zy, pt2zx,     pt2zy);     // W = z1 * z2\n            (pt1xx,     pt1xy)     = _FQ2Sub(pt2yx, pt2yy, pt3[PTYX], pt3[PTYY]); // U = U1 - U2\n            (pt1yx,     pt1yy)     = _FQ2Sub(pt2xx, pt2xy, pt3[PTZX], pt3[PTZY]); // V = V1 - V2\n            (pt1zx,     pt1zy)     = _FQ2Mul(pt1yx, pt1yy, pt1yx,     pt1yy);     // V_squared = V * V\n            (pt2yx,     pt2yy)     = _FQ2Mul(pt1zx, pt1zy, pt3[PTZX], pt3[PTZY]); // V_squared_times_V2 = V_squared * V2\n            (pt1zx,     pt1zy)     = _FQ2Mul(pt1zx, pt1zy, pt1yx,     pt1yy);     // V_cubed = V * V_squared\n            (pt3[PTZX], pt3[PTZY]) = _FQ2Mul(pt1zx, pt1zy, pt2zx,     pt2zy);     // newz = V_cubed * W\n            (pt2xx,     pt2xy)     = _FQ2Mul(pt1xx, pt1xy, pt1xx,     pt1xy);     // U * U\n            (pt2xx,     pt2xy)     = _FQ2Mul(pt2xx, pt2xy, pt2zx,     pt2zy);     // U * U * W\n            (pt2xx,     pt2xy)     = _FQ2Sub(pt2xx, pt2xy, pt1zx,     pt1zy);     // U * U * W - V_cubed\n            (pt2zx,     pt2zy)     = _FQ2Muc(pt2yx, pt2yy, 2);                    // 2 * V_squared_times_V2\n            (pt2xx,     pt2xy)     = _FQ2Sub(pt2xx, pt2xy, pt2zx,     pt2zy);     // A = U * U * W - V_cubed - 2 * V_squared_times_V2\n            (pt3[PTXX], pt3[PTXY]) = _FQ2Mul(pt1yx, pt1yy, pt2xx,     pt2xy);     // newx = V * A\n            (pt1yx,     pt1yy)     = _FQ2Sub(pt2yx, pt2yy, pt2xx,     pt2xy);     // V_squared_times_V2 - A\n            (pt1yx,     pt1yy)     = _FQ2Mul(pt1xx, pt1xy, pt1yx,     pt1yy);     // U * (V_squared_times_V2 - A)\n            (pt1xx,     pt1xy)     = _FQ2Mul(pt1zx, pt1zy, pt3[PTYX], pt3[PTYY]); // V_cubed * U2\n            (pt3[PTYX], pt3[PTYY]) = _FQ2Sub(pt1yx, pt1yy, pt1xx,     pt1xy);     // newy = U * (V_squared_times_V2 - A) - V_cubed * U2\n    }\n\n    function _ECTwistDoubleJacobian(\n        uint256 pt1xx, uint256 pt1xy,\n        uint256 pt1yx, uint256 pt1yy,\n        uint256 pt1zx, uint256 pt1zy\n    ) internal pure returns (\n        uint256 pt2xx, uint256 pt2xy,\n        uint256 pt2yx, uint256 pt2yy,\n        uint256 pt2zx, uint256 pt2zy\n    ) {\n        (pt2xx, pt2xy) = _FQ2Muc(pt1xx, pt1xy, 3);            // 3 * x\n        (pt2xx, pt2xy) = _FQ2Mul(pt2xx, pt2xy, pt1xx, pt1xy); // W = 3 * x * x\n        (pt1zx, pt1zy) = _FQ2Mul(pt1yx, pt1yy, pt1zx, pt1zy); // S = y * z\n        (pt2yx, pt2yy) = _FQ2Mul(pt1xx, pt1xy, pt1yx, pt1yy); // x * y\n        (pt2yx, pt2yy) = _FQ2Mul(pt2yx, pt2yy, pt1zx, pt1zy); // B = x * y * S\n        (pt1xx, pt1xy) = _FQ2Mul(pt2xx, pt2xy, pt2xx, pt2xy); // W * W\n        (pt2zx, pt2zy) = _FQ2Muc(pt2yx, pt2yy, 8);            // 8 * B\n        (pt1xx, pt1xy) = _FQ2Sub(pt1xx, pt1xy, pt2zx, pt2zy); // H = W * W - 8 * B\n        (pt2zx, pt2zy) = _FQ2Mul(pt1zx, pt1zy, pt1zx, pt1zy); // S_squared = S * S\n        (pt2yx, pt2yy) = _FQ2Muc(pt2yx, pt2yy, 4);            // 4 * B\n        (pt2yx, pt2yy) = _FQ2Sub(pt2yx, pt2yy, pt1xx, pt1xy); // 4 * B - H\n        (pt2yx, pt2yy) = _FQ2Mul(pt2yx, pt2yy, pt2xx, pt2xy); // W * (4 * B - H)\n        (pt2xx, pt2xy) = _FQ2Muc(pt1yx, pt1yy, 8);            // 8 * y\n        (pt2xx, pt2xy) = _FQ2Mul(pt2xx, pt2xy, pt1yx, pt1yy); // 8 * y * y\n        (pt2xx, pt2xy) = _FQ2Mul(pt2xx, pt2xy, pt2zx, pt2zy); // 8 * y * y * S_squared\n        (pt2yx, pt2yy) = _FQ2Sub(pt2yx, pt2yy, pt2xx, pt2xy); // newy = W * (4 * B - H) - 8 * y * y * S_squared\n        (pt2xx, pt2xy) = _FQ2Muc(pt1xx, pt1xy, 2);            // 2 * H\n        (pt2xx, pt2xy) = _FQ2Mul(pt2xx, pt2xy, pt1zx, pt1zy); // newx = 2 * H * S\n        (pt2zx, pt2zy) = _FQ2Mul(pt1zx, pt1zy, pt2zx, pt2zy); // S * S_squared\n        (pt2zx, pt2zy) = _FQ2Muc(pt2zx, pt2zy, 8);            // newz = 8 * S * S_squared\n    }\n\n    function _ECTwistMulJacobian(\n        uint256 d,\n        uint256 pt1xx, uint256 pt1xy,\n        uint256 pt1yx, uint256 pt1yy,\n        uint256 pt1zx, uint256 pt1zy\n    ) internal pure returns (uint256[6] memory pt2) {\n        while (d != 0) {\n            if ((d & 1) != 0) {\n                pt2 = _ECTwistAddJacobian(\n                    pt2[PTXX], pt2[PTXY],\n                    pt2[PTYX], pt2[PTYY],\n                    pt2[PTZX], pt2[PTZY],\n                    pt1xx, pt1xy,\n                    pt1yx, pt1yy,\n                    pt1zx, pt1zy);\n            }\n            (\n                pt1xx, pt1xy,\n                pt1yx, pt1yy,\n                pt1zx, pt1zy\n            ) = _ECTwistDoubleJacobian(\n                pt1xx, pt1xy,\n                pt1yx, pt1yy,\n                pt1zx, pt1zy\n            );\n\n            d = d / 2;\n        }\n    }\n}\n",
  "sourcePath": "/home/yyu/git/zkWasm-protocol/contracts/BN256.sol",
  "compiler": {
    "name": "solc",
    "version": "0.8.17+commit.8df45f5f.Linux.g++"
  },
  "schemaVersion": "3.4.13",
  "updatedAt": "2023-03-29T01:07:18.931Z",
  "devdoc": {
    "author": "Mustafa Al-Bassam (mus@musalbas.com)",
    "details": "Homepage: https://github.com/musalbas/solidity-BN256G2",
    "kind": "dev",
    "methods": {
      "ECTwistAdd(uint256,uint256,uint256,uint256,uint256,uint256,uint256,uint256)": {
        "params": {
          "pt1xx": "Coefficient 1 of x on point 1",
          "pt1xy": "Coefficient 2 of x on point 1",
          "pt1yx": "Coefficient 1 of y on point 1",
          "pt1yy": "Coefficient 2 of y on point 1",
          "pt2xx": "Coefficient 1 of x on point 2",
          "pt2xy": "Coefficient 2 of x on point 2",
          "pt2yx": "Coefficient 1 of y on point 2",
          "pt2yy": "Coefficient 2 of y on point 2"
        },
        "returns": {
          "_0": "(pt3xx, pt3xy, pt3yx, pt3yy)"
        }
      },
      "ECTwistMul(uint256,uint256,uint256,uint256,uint256)": {
        "params": {
          "pt1xx": "Coefficient 1 of x",
          "pt1xy": "Coefficient 2 of x",
          "pt1yx": "Coefficient 1 of y",
          "pt1yy": "Coefficient 2 of y",
          "s": "Scalar to multiply by"
        },
        "returns": {
          "_0": "(pt2xx, pt2xy, pt2yx, pt2yy)"
        }
      },
      "GetFieldModulus()": {
        "returns": {
          "_0": "The field modulus"
        }
      }
    },
    "title": "Elliptic curve operations on twist points for alt_bn128",
    "version": 1
  },
  "userdoc": {
    "kind": "user",
    "methods": {
      "ECTwistAdd(uint256,uint256,uint256,uint256,uint256,uint256,uint256,uint256)": {
        "notice": "Add two twist points"
      },
      "ECTwistMul(uint256,uint256,uint256,uint256,uint256)": {
        "notice": "Multiply a twist point by a scalar"
      },
      "GetFieldModulus()": {
        "notice": "Get the field modulus"
      }
    },
    "version": 1
  }
}