{
  "contractName": "DummyVerifier",
  "abi": [
    {
      "inputs": [
        {
          "internalType": "uint256[]",
          "name": "proof",
          "type": "uint256[]"
        },
        {
          "internalType": "uint256[]",
          "name": "verify_instance",
          "type": "uint256[]"
        },
        {
          "internalType": "uint256[]",
          "name": "aux",
          "type": "uint256[]"
        },
        {
          "internalType": "uint256[][]",
          "name": "target_instance",
          "type": "uint256[][]"
        }
      ],
      "name": "verify",
      "outputs": [],
      "stateMutability": "view",
      "type": "function",
      "constant": true
    }
  ],
  "bytecode": "0x608060405234801561001057600080fd5b5061018e806100206000396000f3fe608060405234801561001057600080fd5b506004361061002b5760003560e01c8063ae022ccd14610030575b600080fd5b61004861003e366004610095565b5050505050505050565b005b60008083601f84011261005c57600080fd5b5081356001600160401b0381111561007357600080fd5b6020830191508360208260051b850101111561008e57600080fd5b9250929050565b6000806000806000806000806080898b0312156100b157600080fd5b88356001600160401b03808211156100c857600080fd5b6100d48c838d0161004a565b909a50985060208b01359150808211156100ed57600080fd5b6100f98c838d0161004a565b909850965060408b013591508082111561011257600080fd5b61011e8c838d0161004a565b909650945060608b013591508082111561013757600080fd5b506101448b828c0161004a565b999c989b509699509497939692959450505056fea2646970667358221220807804105a73d9ca504e00b0d7f252196ce1a1f1705d3f4b48de53a97e99329b64736f6c63430008110033",
  "immutableReferences": {},
  "source": "// SPDX-License-Identifier: UNLICENSED\npragma solidity ^0.8.0;\nimport \"./Verifier.sol\";\ncontract DummyVerifier is DelphinusVerifier {\n    function verify (\n        uint256[] calldata proof,\n        uint256[] calldata verify_instance,\n        uint256[] calldata aux,\n        uint256[][] calldata target_instance\n    ) public view {\n    }\n}\n",
  "sourcePath": "/home/yyu/git/zkWasm-protocol/contracts/DummyVerifier.sol",
  "compiler": {
    "name": "solc",
    "version": "0.8.17+commit.8df45f5f.Linux.g++"
  },
  "schemaVersion": "3.4.13",
  "updatedAt": "2023-03-29T22:16:26.545Z",
  "networkType": "ethereum",
  "devdoc": {
    "kind": "dev",
    "methods": {
      "verify(uint256[],uint256[],uint256[],uint256[][])": {
        "details": "snark verification stub"
      }
    },
    "version": 1
  },
  "userdoc": {
    "kind": "user",
    "methods": {},
    "version": 1
  }
}