{
  "contractName": "Proxy",
  "abi": [
    {
      "inputs": [
        {
          "internalType": "uint32",
          "name": "chain_id",
          "type": "uint32"
        }
      ],
      "stateMutability": "nonpayable",
      "type": "constructor"
    },
    {
      "anonymous": false,
      "inputs": [
        {
          "indexed": false,
          "internalType": "uint256",
          "name": "rid",
          "type": "uint256"
        },
        {
          "indexed": false,
          "internalType": "uint256",
          "name": "l2account",
          "type": "uint256"
        }
      ],
      "name": "Ack",
      "type": "event"
    },
    {
      "anonymous": false,
      "inputs": [
        {
          "indexed": false,
          "internalType": "uint256",
          "name": "l1token",
          "type": "uint256"
        },
        {
          "indexed": false,
          "internalType": "uint256",
          "name": "l2account",
          "type": "uint256"
        },
        {
          "indexed": false,
          "internalType": "uint256",
          "name": "amount",
          "type": "uint256"
        }
      ],
      "name": "Deposit",
      "type": "event"
    },
    {
      "anonymous": false,
      "inputs": [
        {
          "indexed": false,
          "internalType": "uint256",
          "name": "l1account",
          "type": "uint256"
        },
        {
          "indexed": false,
          "internalType": "uint256",
          "name": "l2account",
          "type": "uint256"
        },
        {
          "indexed": false,
          "internalType": "uint256",
          "name": "amount",
          "type": "uint256"
        }
      ],
      "name": "WithDraw",
      "type": "event"
    },
    {
      "inputs": [],
      "name": "getProxyInfo",
      "outputs": [
        {
          "components": [
            {
              "internalType": "uint128",
              "name": "chain_id",
              "type": "uint128"
            },
            {
              "internalType": "uint32",
              "name": "amount_token",
              "type": "uint32"
            },
            {
              "internalType": "uint32",
              "name": "amount_pool",
              "type": "uint32"
            },
            {
              "internalType": "address",
              "name": "owner",
              "type": "address"
            },
            {
              "internalType": "uint256",
              "name": "merkle_root",
              "type": "uint256"
            },
            {
              "internalType": "uint256",
              "name": "rid",
              "type": "uint256"
            },
            {
              "internalType": "uint256",
              "name": "verifierID",
              "type": "uint256"
            }
          ],
          "internalType": "struct ProxyInfo",
          "name": "",
          "type": "tuple"
        }
      ],
      "stateMutability": "view",
      "type": "function",
      "constant": true
    },
    {
      "inputs": [
        {
          "internalType": "uint256",
          "name": "token",
          "type": "uint256"
        }
      ],
      "name": "addToken",
      "outputs": [
        {
          "internalType": "uint32",
          "name": "",
          "type": "uint32"
        }
      ],
      "stateMutability": "nonpayable",
      "type": "function"
    },
    {
      "inputs": [],
      "name": "allTokens",
      "outputs": [
        {
          "components": [
            {
              "internalType": "uint256",
              "name": "token_uid",
              "type": "uint256"
            }
          ],
          "internalType": "struct TokenInfo[]",
          "name": "",
          "type": "tuple[]"
        }
      ],
      "stateMutability": "view",
      "type": "function",
      "constant": true
    },
    {
      "inputs": [
        {
          "internalType": "uint128",
          "name": "tidx",
          "type": "uint128"
        },
        {
          "internalType": "uint128",
          "name": "amount",
          "type": "uint128"
        },
        {
          "internalType": "uint256",
          "name": "l1recipent",
          "type": "uint256"
        }
      ],
      "name": "_withdraw",
      "outputs": [],
      "stateMutability": "nonpayable",
      "type": "function"
    },
    {
      "inputs": [
        {
          "internalType": "address",
          "name": "txaddr",
          "type": "address"
        },
        {
          "internalType": "bool",
          "name": "sideEffect",
          "type": "bool"
        }
      ],
      "name": "addTransaction",
      "outputs": [
        {
          "internalType": "uint256",
          "name": "",
          "type": "uint256"
        }
      ],
      "stateMutability": "nonpayable",
      "type": "function"
    },
    {
      "inputs": [
        {
          "internalType": "address",
          "name": "vaddr",
          "type": "address"
        }
      ],
      "name": "addVerifier",
      "outputs": [
        {
          "internalType": "uint256",
          "name": "",
          "type": "uint256"
        }
      ],
      "stateMutability": "nonpayable",
      "type": "function"
    },
    {
      "inputs": [
        {
          "internalType": "address",
          "name": "token",
          "type": "address"
        },
        {
          "internalType": "uint256",
          "name": "amount",
          "type": "uint256"
        },
        {
          "internalType": "uint256",
          "name": "l2account",
          "type": "uint256"
        }
      ],
      "name": "deposit",
      "outputs": [],
      "stateMutability": "nonpayable",
      "type": "function"
    },
    {
      "inputs": [
        {
          "internalType": "bytes",
          "name": "tx_data",
          "type": "bytes"
        },
        {
          "internalType": "uint256",
          "name": "batch_size",
          "type": "uint256"
        }
      ],
      "name": "perform_txs",
      "outputs": [
        {
          "internalType": "uint256",
          "name": "",
          "type": "uint256"
        }
      ],
      "stateMutability": "nonpayable",
      "type": "function"
    },
    {
      "inputs": [
        {
          "internalType": "bytes",
          "name": "tx_data",
          "type": "bytes"
        },
        {
          "internalType": "uint256[]",
          "name": "proof",
          "type": "uint256[]"
        },
        {
          "internalType": "uint256[]",
          "name": "verify_instance",
          "type": "uint256[]"
        },
        {
          "internalType": "uint256[]",
          "name": "aux",
          "type": "uint256[]"
        },
        {
          "internalType": "uint256[][]",
          "name": "instances",
          "type": "uint256[][]"
        },
        {
          "internalType": "uint8",
          "name": "_vid",
          "type": "uint8"
        },
        {
          "components": [
            {
              "internalType": "uint256",
              "name": "rid",
              "type": "uint256"
            },
            {
              "internalType": "uint256",
              "name": "batch_size",
              "type": "uint256"
            }
          ],
          "internalType": "struct RidInfo",
          "name": "ridInfo",
          "type": "tuple"
        }
      ],
      "name": "verify",
      "outputs": [],
      "stateMutability": "nonpayable",
      "type": "function"
    }
  ],
  "bytecode": "0x608060405234801561001057600080fd5b5060405161197738038061197783398101604081905261002f9161008b565b600380546001600160801b03191663ffffffff909216919091179055600480546001600160a01b031916331790557f151399c724e17408a7a43cdadba2fc000da9339c56e4d49c6cdee6c4356fbc68600b556000600c556100b8565b60006020828403121561009d57600080fd5b815163ffffffff811681146100b157600080fd5b9392505050565b6118b0806100c76000396000f3fe608060405234801561001057600080fd5b50600436106100835760003560e01c80630efe6a8b146100885780631246ea561461009d578063179d375c146101b55780633ab47626146101dd5780633c0925d3146101fe5780634e5ca59e146102115780636ff97f1d146102245780639000b3d614610239578063bcb8afc51461024c575b600080fd5b61009b610096366004611119565b61025f565b005b6101426040805160e081018252600080825260208201819052918101829052606081018290526080810182905260a0810182905260c0810191909152506040805160e0810182526003546001600160801b038116825263ffffffff600160801b820481166020840152600160a01b90910416918101919091526004546001600160a01b03166060820152600b546080820152600c5460a0820152600d5460c082015290565b6040805182516001600160801b0316815260208084015163ffffffff908116918301919091528383015116918101919091526060808301516001600160a01b0316908201526080808301519082015260a0808301519082015260c0918201519181019190915260e0015b60405180910390f35b6101c86101c336600461114c565b6103e1565b60405163ffffffff90911681526020016101ac565b6101f06101eb3660046111ad565b6104d8565b6040519081526020016101ac565b61009b61020c366004611265565b61060e565b6101f061021f3660046113a1565b6109bf565b61022c610a5e565b6040516101ac91906113d8565b6101f061024736600461141d565b610abc565b61009b61025a36600461144f565b610b43565b82600061026b82610be4565b60008181526008602052604090205490915060ff1615156001146102d15760405162461bcd60e51b81526020600482015260186024820152772232b837b9b4ba1d102ab73a3930b1b5b2b2102a37b5b2b760411b60448201526064015b60405180910390fd5b6040516370a0823160e01b81523360048201526000906001600160a01b038416906370a0823190602401602060405180830381865afa158015610318573d6000803e3d6000fd5b505050506040513d601f19601f8201168201806040525081019061033c919061148b565b9050848110156103855760405162461bcd60e51b8152602060048201526014602482015273496e73756666696369656e742042616c616e636560601b60448201526064016102c8565b61039183333088610c0a565b7f33da4f9b82b3e18a281ca2cabbe2f076925692abb593b7ea3f850009e8ec97706103bb87610be4565b6040805191825260208201879052810187905260600160405180910390a1505050505050565b6000805460408051602081019091528381526001808301845583805290517f290decd9548b62a8d60345a988386fc84ba6bc95484008f6362f93160ef3e56383015561042e9082906114ba565b6003805463ffffffff92909216600160801b0263ffffffff60801b1990921691909117905560008381526008602052604090205460ff16156104b25760405162461bcd60e51b815260206004820152601d60248201527f416464546f6b656e3a20546f6b656e20416c726561647920457869737400000060448201526064016102c8565b82156104d2576000838152600860205260409020805460ff191660011790555b92915050565b600080805b8381101561060557600086866104f46051856114de565b818110610503576105036114f5565b60015492013560f81c925050811061052d5760405162461bcd60e51b81526004016102c89061150b565b60ff8082166000908152600a602052604090205416156105f257600061055282610cfe565b905060006001600160a01b038216634ab51c038a8a6105726051896114de565b61057d90600161153a565b6040518463ffffffff1660e01b815260040161059b9392919061154d565b600060405180830381865afa1580156105b8573d6000803e3d6000fd5b505050506040513d6000823e601f3d908101601f191682016040526105e0919081019061159c565b9050600194506105ef81610d56565b50505b50806105fd81611659565b9150506104dd565b50949350505050565b600c548135146106605760405162461bcd60e51b815260206004820152601d60248201527f5665726966793a20556e6578706563746564205265717565737420496400000060448201526064016102c8565b61066f602082013560516114de565b8b146106cb5760405162461bcd60e51b815260206004820152602560248201527f5665726966793a20496e73756666696369656e742064656c7461206f7065726160448201526474696f6e7360d81b60648201526084016102c8565b600060028d8d6040516106df929190611672565b602060405180830381855afa1580156106fc573d6000803e3d6000fd5b5050506040513d601f19601f8201168201806040525081019061071f919061148b565b90508484600081610732576107326114f5565b90506020028101906107449190611682565b6003818110610755576107556114f5565b90506020020135608086866000818110610771576107716114f5565b90506020028101906107839190611682565b6002818110610794576107946114f5565b90506020020135901b6107a7919061153a565b81146107ff5760405162461bcd60e51b815260206004820152602160248201527f496e636f6e7374616e743a20536861206461746120696e636f6e73697374616e6044820152601d60fa1b60648201526084016102c8565b84846000818110610812576108126114f5565b90506020028101906108249190611682565b6000818110610835576108356114f5565b90506020020135600b541461088c5760405162461bcd60e51b815260206004820181905260248201527f496e636f6e7374616e743a204d65726b6c6520726f6f74206469736d6174636860448201526064016102c8565b600061089784610ed6565b60405163ae022ccd60e01b81529091506001600160a01b0382169063ae022ccd906108d4908f908f908f908f908f908f908f908f906004016116fd565b60006040518083038186803b1580156108ec57600080fd5b505afa158015610900573d6000803e3d6000fd5b5050505060006109158f8f86602001356104d8565b905060008787600081811061092c5761092c6114f5565b905060200281019061093e9190611682565b600181811061094f5761094f6114f5565b60209081029290920135600b8190559250610970918701359050863561153a565b600c556040805186358152602081018490527fee38081d3dc857c322f60886b009a25e5dd4c879a2df6cc864375bae00ef0734910160405180910390a150505050505050505050505050505050565b60006109c9610f13565b60015460ff81106109ec5760405162461bcd60e51b81526004016102c89061150b565b6001805480820182556000919091527fb10e2d527612073b26eecdfd717e6a320cf44b4afac2b0732d9fcbe2b7fa0cf60180546001600160a01b0319166001600160a01b0386161790558215610a57576000818152600a60205260409020805460ff19168415151790555b9392505050565b60606000805480602002602001604051908101604052809291908181526020016000905b82821015610ab357600084815260209081902060408051808401909152908401548152825260019092019101610a82565b50505050905090565b6000610ac6610f13565b600254600d81905560ff8110610aee5760405162461bcd60e51b81526004016102c8906117dd565b600280546001810182556000919091527f405787fa12a823e0f2b7631cc41b3ba8828b3321ca811111fa75cd3aa3bb5ace0180546001600160a01b0319166001600160a01b0394909416939093179092555090565b6000610b4e84610f6a565b9050610b5981610ffc565b8015610b695750610b6982610ffc565b15610bde5780826001600160a01b038116610bc55760405162461bcd60e51b815260206004820152601c60248201527b576974686472617720746f20746865207a65726f206164647265737360201b60448201526064016102c8565b81610bda81836001600160801b038916611012565b5050505b50505050565b6003546000906104d29060a01b6001600160a01b0319166001600160a01b03841661153a565b604080516001600160a01b0385811660248301528481166044830152606480830185905283518084039091018152608490920183526020820180516001600160e01b03166323b872dd60e01b1790529151600092839290881691610c6e9190611812565b6000604051808303816000865af19150503d8060008114610cab576040519150601f19603f3d011682016040523d82523d6000602084013e610cb0565b606091505b5091509150818015610cda575080511580610cda575080806020019051810190610cda9190611841565b610cf65760405162461bcd60e51b81526004016102c89061185e565b505050505050565b60015460009060ff831610610d255760405162461bcd60e51b81526004016102c89061150b565b60018260ff1681548110610d3b57610d3b6114f5565b6000918252602090912001546001600160a01b031692915050565b60005b8151811015610ed2576000828281518110610d7657610d766114f5565b60200260200101519050600160ff168103610e7a57610d9682600461153a565b83511015610df05760405162461bcd60e51b815260206004820152602160248201527f57697468647261773a20496e73756666696369656e7420617267206e756d62656044820152603960f91b60648201526084016102c8565b610e6883610dff84600161153a565b81518110610e0f57610e0f6114f5565b602002602001015184846002610e25919061153a565b81518110610e3557610e356114f5565b602002602001015185856003610e4b919061153a565b81518110610e5b57610e5b6114f5565b6020026020010151610b43565b610e7382600461153a565b9150610ecc565b60405162461bcd60e51b815260206004820152602160248201527f536964654566666563743a20556e6b6e6f776e53696465456666656374436f646044820152606560f81b60648201526084016102c8565b50610d59565b5050565b60025460009060ff831610610efd5760405162461bcd60e51b81526004016102c8906117dd565b60028260ff1681548110610d3b57610d3b6114f5565b6004546001600160a01b03163314610f685760405162461bcd60e51b815260206004820152601860248201527720baba3437b934ba3c9d102932b8bab4b9329020b236b4b760411b60448201526064016102c8565b565b600354600090600160801b900463ffffffff166001600160801b03831610610fce5760405162461bcd60e51b815260206004820152601760248201527609eeae89ecc84deeadcc87440a8ded6cadc4092dcc8caf604b1b60448201526064016102c8565b6000826001600160801b031681548110610fea57610fea6114f5565b60009182526020909120015492915050565b6003546001600160801b031660a09190911c1490565b604080516001600160a01b038481166024830152604480830185905283518084039091018152606490920183526020820180516001600160e01b031663a9059cbb60e01b179052915160009283929087169161106e9190611812565b6000604051808303816000865af19150503d80600081146110ab576040519150601f19603f3d011682016040523d82523d6000602084013e6110b0565b606091505b50915091508180156110da5750805115806110da5750808060200190518101906110da9190611841565b6110f65760405162461bcd60e51b81526004016102c89061185e565b5050505050565b80356001600160a01b038116811461111457600080fd5b919050565b60008060006060848603121561112e57600080fd5b611137846110fd565b95602085013595506040909401359392505050565b60006020828403121561115e57600080fd5b5035919050565b60008083601f84011261117757600080fd5b5081356001600160401b0381111561118e57600080fd5b6020830191508360208285010111156111a657600080fd5b9250929050565b6000806000604084860312156111c257600080fd5b83356001600160401b038111156111d857600080fd5b6111e486828701611165565b909790965060209590950135949350505050565b60008083601f84011261120a57600080fd5b5081356001600160401b0381111561122157600080fd5b6020830191508360208260051b85010111156111a657600080fd5b803560ff8116811461111457600080fd5b60006040828403121561125f57600080fd5b50919050565b6000806000806000806000806000806000806101008d8f03121561128857600080fd5b6001600160401b038d35111561129d57600080fd5b6112aa8e8e358f01611165565b909c509a506001600160401b0360208e013511156112c757600080fd5b6112d78e60208f01358f016111f8565b909a5098506001600160401b0360408e013511156112f457600080fd5b6113048e60408f01358f016111f8565b90985096506001600160401b0360608e0135111561132157600080fd5b6113318e60608f01358f016111f8565b90965094506001600160401b0360808e0135111561134e57600080fd5b61135e8e60808f01358f016111f8565b909450925061136f60a08e0161123c565b915061137e8e60c08f0161124d565b90509295989b509295989b509295989b565b801515811461139e57600080fd5b50565b600080604083850312156113b457600080fd5b6113bd836110fd565b915060208301356113cd81611390565b809150509250929050565b6020808252825182820181905260009190848201906040850190845b8181101561141157835151835292840192918401916001016113f4565b50909695505050505050565b60006020828403121561142f57600080fd5b610a57826110fd565b80356001600160801b038116811461111457600080fd5b60008060006060848603121561146457600080fd5b61146d84611438565b925061147b60208501611438565b9150604084013590509250925092565b60006020828403121561149d57600080fd5b5051919050565b634e487b7160e01b600052601160045260246000fd5b63ffffffff8181168382160190808211156114d7576114d76114a4565b5092915050565b80820281158282048414176104d2576104d26114a4565b634e487b7160e01b600052603260045260246000fd5b6020808252601590820152741516081a5b99195e081bdd5d081bd988189bdd5b99605a1b604082015260600190565b808201808211156104d2576104d26114a4565b604081528260408201528284606083013760006060848301015260006060601f19601f8601168301019050826020830152949350505050565b634e487b7160e01b600052604160045260246000fd5b600060208083850312156115af57600080fd5b82516001600160401b03808211156115c657600080fd5b818501915085601f8301126115da57600080fd5b8151818111156115ec576115ec611586565b8060051b604051601f19603f8301168101818110858211171561161157611611611586565b60405291825284820192508381018501918883111561162f57600080fd5b938501935b8285101561164d57845184529385019392850192611634565b98975050505050505050565b60006001820161166b5761166b6114a4565b5060010190565b8183823760009101908152919050565b6000808335601e1984360301811261169957600080fd5b8301803591506001600160401b038211156116b357600080fd5b6020019150600581901b36038213156111a657600080fd5b81835260006001600160fb1b038311156116e457600080fd5b8260051b80836020870137939093016020019392505050565b608081526000611711608083018a8c6116cb565b602083820381850152611725828a8c6116cb565b9150838203604085015261173a82888a6116cb565b84810360608601528581529150808201600586811b840183018860005b898110156117c857868303601f190185528135368c9003601e1901811261177d57600080fd5b8b0186810190356001600160401b0381111561179857600080fd5b80861b36038213156117a957600080fd5b6117b48582846116cb565b968801969450505090850190600101611757565b50909f9e505050505050505050505050505050565b6020808252601b908201527a15995c9a599a595c881a5b99195e081bdd5d081bd988189bdd5b99602a1b604082015260600190565b6000825160005b818110156118335760208186018101518583015201611819565b506000920191825250919050565b60006020828403121561185357600080fd5b8151610a5781611390565b6020808252600290820152612a2360f11b60408201526060019056fea2646970667358221220b64db26da5f8a38986d931983a883dd031500df1b4bb635f99560941064f2ea764736f6c63430008110033",
  "immutableReferences": {},
  "source": "// SPDX-License-Identifier: UNLICENSED\npragma solidity ^0.8.0;\nimport \"@openzeppelin/contracts/token/ERC20/ERC20.sol\";\nimport \"./Verifier.sol\";\nimport \"./Transaction.sol\";\nimport \"./DelphinusProxy.sol\";\nimport \"./Data.sol\";\nimport \"./TransferHelper.sol\";\n\ncontract Proxy is DelphinusProxy {\n    event Deposit(uint256 l1token, uint256 l2account, uint256 amount);\n    event WithDraw(uint256 l1account, uint256 l2account, uint256 amount);\n    event Ack(uint256 rid, uint256 l2account);\n\n    TokenInfo[] private _tokens;\n    Transaction[] private transactions;\n    DelphinusVerifier[] private verifiers;\n    ProxyInfo _proxy_info;\n\n    mapping(uint256 => bool) private _tmap;\n    address private _owner;\n\n    mapping(uint256 => bool) private hasSideEffiect;\n    uint256 merkle_root;\n    uint256 rid;\n    uint256 verifierID;\n\n    constructor(uint32 chain_id) {\n        _proxy_info.chain_id = chain_id;\n        _proxy_info.owner = msg.sender;\n        merkle_root = 0x151399c724e17408a7a43cdadba2fc000da9339c56e4d49c6cdee6c4356fbc68;\n        rid = 0;\n    }\n\n    /* Make sure token index is sain and return token uid */\n    function get_token_uid(uint128 tidx) private view returns (uint256) {\n        require(tidx < _proxy_info.amount_token, \"OutOfBound: Token Index\");\n        return _tokens[tidx].token_uid;\n    }\n\n    function ensure_admin() private view {\n        require(_proxy_info.owner == msg.sender, \"Authority: Require Admin\");\n    }\n\n    function getProxyInfo() public view returns (ProxyInfo memory) {\n        return\n            ProxyInfo(\n                _proxy_info.chain_id,\n                _proxy_info.amount_token,\n                _proxy_info.amount_pool,\n                _proxy_info.owner,\n                merkle_root,\n                rid,\n                verifierID\n            );\n    }\n\n    function addToken(uint256 token) public returns (uint32) {\n        //ensure_admin();\n        uint32 cursor = uint32(_tokens.length);\n        _tokens.push(TokenInfo(token));\n        _proxy_info.amount_token = cursor + 1;\n        require(_tmap[token] == false, \"AddToken: Token Already Exist\");\n        if (token != 0) {\n            _tmap[token] = true;\n        }\n        return cursor;\n    }\n\n    function allTokens() public view returns (TokenInfo[] memory) {\n        return _tokens;\n    }\n\n    function _withdraw(\n        uint128 tidx,\n        uint128 amount,\n        uint256 l1recipent\n    ) public {\n        uint256 tokenid = get_token_uid(tidx);\n        if (_is_local(tokenid) && _is_local(l1recipent)) {\n            address token = address(uint160(tokenid));\n            address recipent = address(uint160(l1recipent));\n\n            // Sanitity checks\n            require(recipent != address(0), \"Withdraw to the zero address\");\n\n            // transfer amount back to recipent\n            IERC20 underlying_token = IERC20(token);\n            //underlying_token.transfer(recipent, amount);\n            TransferHelper.safeTransfer(address(underlying_token), recipent, amount);\n        }\n    }\n\n    function addTransaction(address txaddr, bool sideEffect) public returns (uint256) {\n        ensure_admin();\n        uint256 cursor = transactions.length;\n        require(transactions.length < 255, \"TX index out of bound\");\n        transactions.push(Transaction(txaddr));\n        if (sideEffect) {\n          hasSideEffiect[cursor] = sideEffect;\n        }\n        return cursor;\n    }\n\n    function addVerifier(address vaddr) public returns (uint256) {\n        ensure_admin();\n        uint256 cursor = verifiers.length;\n        verifierID = verifiers.length;\n        require(verifiers.length < 255, \"Verifier index out of bound\");\n        verifiers.push(DelphinusVerifier(vaddr));\n        return cursor;\n    }\n\n    function _get_transaction(uint8 tid) private view returns (Transaction) {\n        require(transactions.length > tid, \"TX index out of bound\");\n        return transactions[tid];\n    }\n\n    function _get_verifier(uint8 vid) private view returns (DelphinusVerifier) {\n        require(verifiers.length > vid, \"Verifier index out of bound\");\n        return verifiers[vid];\n    }\n\n    /* encode the l1 address into token_uid */\n    function _l1_address(address account) private view returns (uint256) {\n        return\n            (uint256(uint160(account))) +\n            (uint256(_proxy_info.chain_id) << 160);\n    }\n\n    function _is_local(uint256 l1address) private view returns (bool) {\n        return ((l1address >> 160) == (uint256(_proxy_info.chain_id)));\n    }\n\n    function deposit(\n        address token,\n        uint256 amount,\n        uint256 l2account\n    ) public {\n        IERC20 underlying_token = IERC20(token);\n        uint256 token_uid = _l1_address(token);\n        require(_tmap[token_uid] == true, \"Deposit: Untracked Token\");\n        uint256 balance = underlying_token.balanceOf(msg.sender);\n        require(balance >= amount, \"Insufficient Balance\");\n        //USDT does not follow ERC20 interface so have to use the following safer method\n        TransferHelper.safeTransferFrom(address(underlying_token), msg.sender, address(this), amount);\n        emit Deposit(_l1_address(token), l2account, amount);\n    }\n\n    /*\n     * @dev side effect encoded in the update function\n     * deltas = [| opcode; args |]\n     */\n    function _update_state(uint256[] memory deltas) private {\n        uint256 cursor = 0;\n        while (cursor < deltas.length) {\n            uint256 delta_code = deltas[cursor];\n            if (delta_code == _WITHDRAW) {\n                require(\n                    deltas.length >= cursor + 4,\n                    \"Withdraw: Insufficient arg number\"\n                );\n                _withdraw(\n                    uint128(deltas[cursor + 1]),\n                    uint128(deltas[cursor + 2]),\n                    deltas[cursor + 3]\n                );\n                cursor = cursor + 4;\n            } else {\n                revert(\"SideEffect: UnknownSideEffectCode\");\n            }\n        }\n    }\n\n    //uint256 constant BATCH_SIZE = 10;\n    uint256 constant OP_SIZE = 81; // 81 bytes\n\n    function perform_txs(\n        bytes calldata tx_data,\n        uint256 batch_size\n    ) public returns (uint256){\n        uint256 ret = 0; \n        for (uint i = 0; i < batch_size; i++) {\n            uint8 op_code = uint8(tx_data[i * OP_SIZE]);\n            require(transactions.length > op_code, \"TX index out of bound\");\n            if (hasSideEffiect[op_code]) {\n                Transaction transaction = _get_transaction(op_code);\n                uint256[] memory update = transaction.sideEffect(tx_data, i * OP_SIZE + 1);\n                ret = 1;\n                _update_state(update);\n            }\n        }\n        return ret;\n    }\n\n    /*\n     * @dev Data encodes the delta functions with there verification in reverse order\n     * data = opcode args; opcode' args'; ....\n     */\n    function verify(\n        bytes calldata tx_data,\n        uint256[] calldata proof,\n        uint256[] calldata verify_instance,\n        uint256[] calldata aux,\n        uint256[][] calldata instances,\n        uint8 _vid,\n        RidInfo calldata ridInfo\n    ) public {\n        require(rid == ridInfo.rid, \"Verify: Unexpected Request Id\");\n\n        // [0]: old root, [1]: new root, [2]: sha_low, [3]: sha_high\n\n        require(\n            tx_data.length == OP_SIZE * ridInfo.batch_size,\n            \"Verify: Insufficient delta operations\"\n        );\n\n        uint256 sha_pack = uint256(sha256(tx_data));\n        require(\n            sha_pack == (instances[0][2] << 128) + instances[0][3],\n            \"Inconstant: Sha data inconsistant\"\n        );\n\n        require(\n            merkle_root == instances[0][0],\n            \"Inconstant: Merkle root dismatch\"\n        );\n\n        DelphinusVerifier verifier = _get_verifier(_vid);\n        verifier.verify(proof, verify_instance, aux, instances);\n        \n        uint256 sideEffectCalled = perform_txs(tx_data, ridInfo.batch_size);\n\n        uint256 new_merkle_root = instances[0][1];\n        merkle_root = new_merkle_root;\n        rid = ridInfo.rid + ridInfo.batch_size;\n        emit Ack(ridInfo.rid, sideEffectCalled);\n    }\n}\n",
  "sourcePath": "/home/yyu/git/zkWasm-protocol/contracts/Proxy.sol",
  "compiler": {
    "name": "solc",
    "version": "0.8.17+commit.8df45f5f.Linux.g++"
  },
  "schemaVersion": "3.4.13",
  "updatedAt": "2023-03-29T22:16:26.514Z",
  "networkType": "ethereum",
  "devdoc": {
    "kind": "dev",
    "methods": {
      "getProxyInfo()": {
        "details": "snark verification stub"
      }
    },
    "version": 1
  },
  "userdoc": {
    "kind": "user",
    "methods": {},
    "version": 1
  }
}