{
  "contractName": "Proxy",
  "abi": [
    {
      "inputs": [
        {
          "internalType": "uint32",
          "name": "chain_id",
          "type": "uint32"
        }
      ],
      "stateMutability": "nonpayable",
      "type": "constructor"
    },
    {
      "anonymous": false,
      "inputs": [
        {
          "indexed": false,
          "internalType": "uint256",
          "name": "rid",
          "type": "uint256"
        },
        {
          "indexed": false,
          "internalType": "uint256",
          "name": "l2account",
          "type": "uint256"
        }
      ],
      "name": "Ack",
      "type": "event"
    },
    {
      "anonymous": false,
      "inputs": [
        {
          "indexed": false,
          "internalType": "uint256",
          "name": "l1token",
          "type": "uint256"
        },
        {
          "indexed": false,
          "internalType": "uint256",
          "name": "l2account",
          "type": "uint256"
        },
        {
          "indexed": false,
          "internalType": "uint256",
          "name": "amount",
          "type": "uint256"
        }
      ],
      "name": "Deposit",
      "type": "event"
    },
    {
      "anonymous": false,
      "inputs": [
        {
          "indexed": false,
          "internalType": "uint256",
          "name": "l1account",
          "type": "uint256"
        },
        {
          "indexed": false,
          "internalType": "uint256",
          "name": "l2account",
          "type": "uint256"
        },
        {
          "indexed": false,
          "internalType": "uint256",
          "name": "amount",
          "type": "uint256"
        }
      ],
      "name": "WithDraw",
      "type": "event"
    },
    {
      "inputs": [],
      "name": "getProxyInfo",
      "outputs": [
        {
          "components": [
            {
              "internalType": "uint128",
              "name": "chain_id",
              "type": "uint128"
            },
            {
              "internalType": "uint32",
              "name": "amount_token",
              "type": "uint32"
            },
            {
              "internalType": "uint32",
              "name": "amount_pool",
              "type": "uint32"
            },
            {
              "internalType": "address",
              "name": "owner",
              "type": "address"
            },
            {
              "internalType": "uint256",
              "name": "merkle_root",
              "type": "uint256"
            },
            {
              "internalType": "uint256",
              "name": "rid",
              "type": "uint256"
            },
            {
              "internalType": "uint256",
              "name": "verifierID",
              "type": "uint256"
            }
          ],
          "internalType": "struct ProxyInfo",
          "name": "",
          "type": "tuple"
        }
      ],
      "stateMutability": "view",
      "type": "function",
      "constant": true
    },
    {
      "inputs": [
        {
          "internalType": "uint256",
          "name": "token",
          "type": "uint256"
        }
      ],
      "name": "addToken",
      "outputs": [
        {
          "internalType": "uint32",
          "name": "",
          "type": "uint32"
        }
      ],
      "stateMutability": "nonpayable",
      "type": "function"
    },
    {
      "inputs": [],
      "name": "allTokens",
      "outputs": [
        {
          "components": [
            {
              "internalType": "uint256",
              "name": "token_uid",
              "type": "uint256"
            }
          ],
          "internalType": "struct TokenInfo[]",
          "name": "",
          "type": "tuple[]"
        }
      ],
      "stateMutability": "view",
      "type": "function",
      "constant": true
    },
    {
      "inputs": [
        {
          "internalType": "uint128",
          "name": "tidx",
          "type": "uint128"
        },
        {
          "internalType": "uint128",
          "name": "amount",
          "type": "uint128"
        },
        {
          "internalType": "uint256",
          "name": "l1recipent",
          "type": "uint256"
        }
      ],
      "name": "_withdraw",
      "outputs": [],
      "stateMutability": "nonpayable",
      "type": "function"
    },
    {
      "inputs": [
        {
          "internalType": "address",
          "name": "txaddr",
          "type": "address"
        },
        {
          "internalType": "bool",
          "name": "sideEffect",
          "type": "bool"
        }
      ],
      "name": "addTransaction",
      "outputs": [
        {
          "internalType": "uint256",
          "name": "",
          "type": "uint256"
        }
      ],
      "stateMutability": "nonpayable",
      "type": "function"
    },
    {
      "inputs": [
        {
          "internalType": "address",
          "name": "vaddr",
          "type": "address"
        }
      ],
      "name": "addVerifier",
      "outputs": [
        {
          "internalType": "uint256",
          "name": "",
          "type": "uint256"
        }
      ],
      "stateMutability": "nonpayable",
      "type": "function"
    },
    {
      "inputs": [
        {
          "internalType": "address",
          "name": "token",
          "type": "address"
        },
        {
          "internalType": "uint256",
          "name": "amount",
          "type": "uint256"
        },
        {
          "internalType": "uint256",
          "name": "l2account",
          "type": "uint256"
        }
      ],
      "name": "deposit",
      "outputs": [],
      "stateMutability": "nonpayable",
      "type": "function"
    },
    {
      "inputs": [
        {
          "internalType": "bytes",
          "name": "tx_data",
          "type": "bytes"
        }
      ],
      "name": "perform_txs",
      "outputs": [
        {
          "internalType": "uint256",
          "name": "",
          "type": "uint256"
        }
      ],
      "stateMutability": "nonpayable",
      "type": "function"
    },
    {
      "inputs": [
        {
          "internalType": "bytes",
          "name": "tx_data",
          "type": "bytes"
        },
        {
          "internalType": "uint256[]",
          "name": "proof",
          "type": "uint256[]"
        },
        {
          "internalType": "uint256[]",
          "name": "verify_instance",
          "type": "uint256[]"
        },
        {
          "internalType": "uint256[]",
          "name": "aux",
          "type": "uint256[]"
        },
        {
          "internalType": "uint256[][]",
          "name": "instances",
          "type": "uint256[][]"
        },
        {
          "internalType": "uint8",
          "name": "_vid",
          "type": "uint8"
        },
        {
          "internalType": "uint256",
          "name": "_rid",
          "type": "uint256"
        }
      ],
      "name": "verify",
      "outputs": [],
      "stateMutability": "nonpayable",
      "type": "function"
    }
  ],
  "bytecode": "0x608060405234801561001057600080fd5b5060405161195e38038061195e83398101604081905261002f9161008b565b600380546001600160801b03191663ffffffff909216919091179055600480546001600160a01b031916331790557f151399c724e17408a7a43cdadba2fc000da9339c56e4d49c6cdee6c4356fbc68600b556000600c556100b8565b60006020828403121561009d57600080fd5b815163ffffffff811681146100b157600080fd5b9392505050565b611897806100c76000396000f3fe608060405234801561001057600080fd5b50600436106100835760003560e01c80630efe6a8b146100885780631246ea561461009d578063179d375c146101b55780634e5ca59e146101dd5780636ff97f1d146101fe5780639000b3d614610213578063b41e71de14610226578063bcb8afc514610239578063d94b64981461024c575b600080fd5b61009b61009636600461110a565b61025f565b005b6101426040805160e081018252600080825260208201819052918101829052606081018290526080810182905260a0810182905260c0810191909152506040805160e0810182526003546001600160801b038116825263ffffffff600160801b820481166020840152600160a01b90910416918101919091526004546001600160a01b03166060820152600b546080820152600c5460a0820152600d5460c082015290565b6040805182516001600160801b0316815260208084015163ffffffff908116918301919091528383015116918101919091526060808301516001600160a01b0316908201526080808301519082015260a0808301519082015260c0918201519181019190915260e0015b60405180910390f35b6101c86101c336600461113d565b6103e1565b60405163ffffffff90911681526020016101ac565b6101f06101eb366004611167565b6104d8565b6040519081526020016101ac565b610206610577565b6040516101ac919061119e565b6101f06102213660046111e3565b6105d5565b6101f0610234366004611246565b61065c565b61009b61024736600461129e565b610792565b61009b61025a36600461132f565b610833565b82600061026b82610bd5565b60008181526008602052604090205490915060ff1615156001146102d15760405162461bcd60e51b81526020600482015260186024820152772232b837b9b4ba1d102ab73a3930b1b5b2b2102a37b5b2b760411b60448201526064015b60405180910390fd5b6040516370a0823160e01b81523360048201526000906001600160a01b038416906370a0823190602401602060405180830381865afa158015610318573d6000803e3d6000fd5b505050506040513d601f19601f8201168201806040525081019061033c9190611451565b9050848110156103855760405162461bcd60e51b8152602060048201526014602482015273496e73756666696369656e742042616c616e636560601b60448201526064016102c8565b61039183333088610bfb565b7f33da4f9b82b3e18a281ca2cabbe2f076925692abb593b7ea3f850009e8ec97706103bb87610bd5565b6040805191825260208201879052810187905260600160405180910390a1505050505050565b6000805460408051602081019091528381526001808301845583805290517f290decd9548b62a8d60345a988386fc84ba6bc95484008f6362f93160ef3e56383015561042e908290611480565b6003805463ffffffff92909216600160801b0263ffffffff60801b1990921691909117905560008381526008602052604090205460ff16156104b25760405162461bcd60e51b815260206004820152601d60248201527f416464546f6b656e3a20546f6b656e20416c726561647920457869737400000060448201526064016102c8565b82156104d2576000838152600860205260409020805460ff191660011790555b92915050565b60006104e2610cef565b60015460ff81106105055760405162461bcd60e51b81526004016102c8906114a8565b6001805480820182556000919091527fb10e2d527612073b26eecdfd717e6a320cf44b4afac2b0732d9fcbe2b7fa0cf60180546001600160a01b0319166001600160a01b0386161790558215610570576000818152600a60205260409020805460ff19168415151790555b9392505050565b60606000805480602002602001604051908101604052809291908181526020016000905b828210156105cc5760008481526020908190206040805180840190915290840154815282526001909201910161059b565b50505050905090565b60006105df610cef565b600254600d81905560ff81106106075760405162461bcd60e51b81526004016102c8906114d7565b600280546001810182556000919091527f405787fa12a823e0f2b7631cc41b3ba8828b3321ca811111fa75cd3aa3bb5ace0180546001600160a01b0319166001600160a01b0394909416939093179092555090565b600080805b600a81101561078a576000858561067960518561150c565b8181106106885761068861152b565b60015492013560f81c92505081106106b25760405162461bcd60e51b81526004016102c8906114a8565b60ff8082166000908152600a602052604090205416156107775760006106d782610d46565b905060006001600160a01b038216634ab51c0389896106f760518961150c565b610702906001611541565b6040518463ffffffff1660e01b815260040161072093929190611559565b600060405180830381865afa15801561073d573d6000803e3d6000fd5b505050506040513d6000823e601f3d908101601f1916820160405261076591908101906115a8565b90506001945061077481610d9e565b50505b508061078281611665565b915050610661565b509392505050565b600061079d84610f1e565b90506107a881610fb0565b80156107b857506107b882610fb0565b1561082d5780826001600160a01b0381166108145760405162461bcd60e51b815260206004820152601c60248201527b576974686472617720746f20746865207a65726f206164647265737360201b60448201526064016102c8565b8161082981836001600160801b038916610fc6565b5050505b50505050565b80600c54146108845760405162461bcd60e51b815260206004820152601d60248201527f5665726966793a20556e6578706563746564205265717565737420496400000060448201526064016102c8565b610890600a605161150c565b8b146108ec5760405162461bcd60e51b815260206004820152602560248201527f5665726966793a20496e73756666696369656e742064656c7461206f7065726160448201526474696f6e7360d81b60648201526084016102c8565b600060028d8d60405161090092919061167e565b602060405180830381855afa15801561091d573d6000803e3d6000fd5b5050506040513d601f19601f820116820180604052508101906109409190611451565b905084846000816109535761095361152b565b9050602002810190610965919061168e565b60038181106109765761097661152b565b905060200201356080868660008181106109925761099261152b565b90506020028101906109a4919061168e565b60028181106109b5576109b561152b565b90506020020135901b6109c89190611541565b8114610a205760405162461bcd60e51b815260206004820152602160248201527f496e636f6e7374616e743a20536861206461746120696e636f6e73697374616e6044820152601d60fa1b60648201526084016102c8565b84846000818110610a3357610a3361152b565b9050602002810190610a45919061168e565b6000818110610a5657610a5661152b565b90506020020135600b5414610aad5760405162461bcd60e51b815260206004820181905260248201527f496e636f6e7374616e743a204d65726b6c6520726f6f74206469736d6174636860448201526064016102c8565b6000610ab8846110b1565b60405163ae022ccd60e01b81529091506001600160a01b0382169063ae022ccd90610af5908f908f908f908f908f908f908f908f9060040161170d565b60006040518083038186803b158015610b0d57600080fd5b505afa158015610b21573d6000803e3d6000fd5b505050506000610b318f8f61065c565b9050600087876000818110610b4857610b4861152b565b9050602002810190610b5a919061168e565b6001818110610b6b57610b6b61152b565b6020029190910135600b8190559150610b879050600a86611541565b600c5560408051868152602081018490527fee38081d3dc857c322f60886b009a25e5dd4c879a2df6cc864375bae00ef0734910160405180910390a150505050505050505050505050505050565b6003546000906104d29060a01b6001600160a01b0319166001600160a01b038416611541565b604080516001600160a01b0385811660248301528481166044830152606480830185905283518084039091018152608490920183526020820180516001600160e01b03166323b872dd60e01b1790529151600092839290881691610c5f91906117ed565b6000604051808303816000865af19150503d8060008114610c9c576040519150601f19603f3d011682016040523d82523d6000602084013e610ca1565b606091505b5091509150818015610ccb575080511580610ccb575080806020019051810190610ccb9190611828565b610ce75760405162461bcd60e51b81526004016102c890611845565b505050505050565b6004546001600160a01b03163314610d445760405162461bcd60e51b815260206004820152601860248201527720baba3437b934ba3c9d102932b8bab4b9329020b236b4b760411b60448201526064016102c8565b565b60015460009060ff831610610d6d5760405162461bcd60e51b81526004016102c8906114a8565b60018260ff1681548110610d8357610d8361152b565b6000918252602090912001546001600160a01b031692915050565b60005b8151811015610f1a576000828281518110610dbe57610dbe61152b565b60200260200101519050600160ff168103610ec257610dde826004611541565b83511015610e385760405162461bcd60e51b815260206004820152602160248201527f57697468647261773a20496e73756666696369656e7420617267206e756d62656044820152603960f91b60648201526084016102c8565b610eb083610e47846001611541565b81518110610e5757610e5761152b565b602002602001015184846002610e6d9190611541565b81518110610e7d57610e7d61152b565b602002602001015185856003610e939190611541565b81518110610ea357610ea361152b565b6020026020010151610792565b610ebb826004611541565b9150610f14565b60405162461bcd60e51b815260206004820152602160248201527f536964654566666563743a20556e6b6e6f776e53696465456666656374436f646044820152606560f81b60648201526084016102c8565b50610da1565b5050565b600354600090600160801b900463ffffffff166001600160801b03831610610f825760405162461bcd60e51b815260206004820152601760248201527609eeae89ecc84deeadcc87440a8ded6cadc4092dcc8caf604b1b60448201526064016102c8565b6000826001600160801b031681548110610f9e57610f9e61152b565b60009182526020909120015492915050565b6003546001600160801b031660a09190911c1490565b604080516001600160a01b038481166024830152604480830185905283518084039091018152606490920183526020820180516001600160e01b031663a9059cbb60e01b179052915160009283929087169161102291906117ed565b6000604051808303816000865af19150503d806000811461105f576040519150601f19603f3d011682016040523d82523d6000602084013e611064565b606091505b509150915081801561108e57508051158061108e57508080602001905181019061108e9190611828565b6110aa5760405162461bcd60e51b81526004016102c890611845565b5050505050565b60025460009060ff8316106110d85760405162461bcd60e51b81526004016102c8906114d7565b60028260ff1681548110610d8357610d8361152b565b80356001600160a01b038116811461110557600080fd5b919050565b60008060006060848603121561111f57600080fd5b611128846110ee565b95602085013595506040909401359392505050565b60006020828403121561114f57600080fd5b5035919050565b801515811461116457600080fd5b50565b6000806040838503121561117a57600080fd5b611183836110ee565b9150602083013561119381611156565b809150509250929050565b6020808252825182820181905260009190848201906040850190845b818110156111d757835151835292840192918401916001016111ba565b50909695505050505050565b6000602082840312156111f557600080fd5b610570826110ee565b60008083601f84011261121057600080fd5b5081356001600160401b0381111561122757600080fd5b60208301915083602082850101111561123f57600080fd5b9250929050565b6000806020838503121561125957600080fd5b82356001600160401b0381111561126f57600080fd5b61127b858286016111fe565b90969095509350505050565b80356001600160801b038116811461110557600080fd5b6000806000606084860312156112b357600080fd5b6112bc84611287565b92506112ca60208501611287565b9150604084013590509250925092565b60008083601f8401126112ec57600080fd5b5081356001600160401b0381111561130357600080fd5b6020830191508360208260051b850101111561123f57600080fd5b803560ff8116811461110557600080fd5b60008060008060008060008060008060008060e08d8f03121561135157600080fd5b6001600160401b038d35111561136657600080fd5b6113738e8e358f016111fe565b909c509a506001600160401b0360208e0135111561139057600080fd5b6113a08e60208f01358f016112da565b909a5098506001600160401b0360408e013511156113bd57600080fd5b6113cd8e60408f01358f016112da565b90985096506001600160401b0360608e013511156113ea57600080fd5b6113fa8e60608f01358f016112da565b90965094506001600160401b0360808e0135111561141757600080fd5b6114278e60808f01358f016112da565b909450925061143860a08e0161131e565b915060c08d013590509295989b509295989b509295989b565b60006020828403121561146357600080fd5b5051919050565b634e487b7160e01b600052601160045260246000fd5b600063ffffffff80831681851680830382111561149f5761149f61146a565b01949350505050565b6020808252601590820152741516081a5b99195e081bdd5d081bd988189bdd5b99605a1b604082015260600190565b6020808252601b908201527a15995c9a599a595c881a5b99195e081bdd5d081bd988189bdd5b99602a1b604082015260600190565b60008160001904831182151516156115265761152661146a565b500290565b634e487b7160e01b600052603260045260246000fd5b600082198211156115545761155461146a565b500190565b604081528260408201528284606083013760006060848301015260006060601f19601f8601168301019050826020830152949350505050565b634e487b7160e01b600052604160045260246000fd5b600060208083850312156115bb57600080fd5b82516001600160401b03808211156115d257600080fd5b818501915085601f8301126115e657600080fd5b8151818111156115f8576115f8611592565b8060051b604051601f19603f8301168101818110858211171561161d5761161d611592565b60405291825284820192508381018501918883111561163b57600080fd5b938501935b8285101561165957845184529385019392850192611640565b98975050505050505050565b6000600182016116775761167761146a565b5060010190565b8183823760009101908152919050565b6000808335601e198436030181126116a557600080fd5b8301803591506001600160401b038211156116bf57600080fd5b6020019150600581901b360382131561123f57600080fd5b81835260006001600160fb1b038311156116f057600080fd5b8260051b8083602087013760009401602001938452509192915050565b608081526000611721608083018a8c6116d7565b602083820381850152611735828a8c6116d7565b9150838203604085015261174a82888a6116d7565b84810360608601528581529150808201600586811b840183018860005b898110156117d857868303601f190185528135368c9003601e1901811261178d57600080fd5b8b0186810190356001600160401b038111156117a857600080fd5b80861b36038213156117b957600080fd5b6117c48582846116d7565b968801969450505090850190600101611767565b50909f9e505050505050505050505050505050565b6000825160005b8181101561180e57602081860181015185830152016117f4565b8181111561181d576000828501525b509190910192915050565b60006020828403121561183a57600080fd5b815161057081611156565b6020808252600290820152612a2360f11b60408201526060019056fea264697066735822122073a72b7242366b9f95c8e2eae48789005834b9e1ffb349f420376fb30217b2d964736f6c634300080f0033",
  "immutableReferences": {},
  "source": "// SPDX-License-Identifier: UNLICENSED\npragma solidity ^0.8.0;\nimport \"@openzeppelin/contracts/token/ERC20/ERC20.sol\";\nimport \"./Verifier.sol\";\nimport \"./Transaction.sol\";\nimport \"./DelphinusProxy.sol\";\nimport \"./Data.sol\";\nimport \"./TransferHelper.sol\";\n\ncontract Proxy is DelphinusProxy {\n    event Deposit(uint256 l1token, uint256 l2account, uint256 amount);\n    event WithDraw(uint256 l1account, uint256 l2account, uint256 amount);\n    event Ack(uint256 rid, uint256 l2account);\n\n    TokenInfo[] private _tokens;\n    Transaction[] private transactions;\n    DelphinusVerifier[] private verifiers;\n    ProxyInfo _proxy_info;\n\n    mapping(uint256 => bool) private _tmap;\n    address private _owner;\n\n    mapping(uint256 => bool) private hasSideEffiect;\n    uint256 merkle_root;\n    uint256 rid;\n    uint256 verifierID;\n\n    constructor(uint32 chain_id) {\n        _proxy_info.chain_id = chain_id;\n        _proxy_info.owner = msg.sender;\n        merkle_root = 0x151399c724e17408a7a43cdadba2fc000da9339c56e4d49c6cdee6c4356fbc68;\n        rid = 0;\n    }\n\n    /* Make sure token index is sain and return token uid */\n    function get_token_uid(uint128 tidx) private view returns (uint256) {\n        require(tidx < _proxy_info.amount_token, \"OutOfBound: Token Index\");\n        return _tokens[tidx].token_uid;\n    }\n\n    function ensure_admin() private view {\n        require(_proxy_info.owner == msg.sender, \"Authority: Require Admin\");\n    }\n\n    function getProxyInfo() public view returns (ProxyInfo memory) {\n        return\n            ProxyInfo(\n                _proxy_info.chain_id,\n                _proxy_info.amount_token,\n                _proxy_info.amount_pool,\n                _proxy_info.owner,\n                merkle_root,\n                rid,\n                verifierID\n            );\n    }\n\n    function addToken(uint256 token) public returns (uint32) {\n        //ensure_admin();\n        uint32 cursor = uint32(_tokens.length);\n        _tokens.push(TokenInfo(token));\n        _proxy_info.amount_token = cursor + 1;\n        require(_tmap[token] == false, \"AddToken: Token Already Exist\");\n        if (token != 0) {\n            _tmap[token] = true;\n        }\n        return cursor;\n    }\n\n    function allTokens() public view returns (TokenInfo[] memory) {\n        return _tokens;\n    }\n\n    function _withdraw(\n        uint128 tidx,\n        uint128 amount,\n        uint256 l1recipent\n    ) public {\n        uint256 tokenid = get_token_uid(tidx);\n        if (_is_local(tokenid) && _is_local(l1recipent)) {\n            address token = address(uint160(tokenid));\n            address recipent = address(uint160(l1recipent));\n\n            // Sanitity checks\n            require(recipent != address(0), \"Withdraw to the zero address\");\n\n            // transfer amount back to recipent\n            IERC20 underlying_token = IERC20(token);\n            //underlying_token.transfer(recipent, amount);\n            TransferHelper.safeTransfer(address(underlying_token), recipent, amount);\n        }\n    }\n\n    function addTransaction(address txaddr, bool sideEffect) public returns (uint256) {\n        ensure_admin();\n        uint256 cursor = transactions.length;\n        require(transactions.length < 255, \"TX index out of bound\");\n        transactions.push(Transaction(txaddr));\n        if (sideEffect) {\n          hasSideEffiect[cursor] = sideEffect;\n        }\n        return cursor;\n    }\n\n    function addVerifier(address vaddr) public returns (uint256) {\n        ensure_admin();\n        uint256 cursor = verifiers.length;\n        verifierID = verifiers.length;\n        require(verifiers.length < 255, \"Verifier index out of bound\");\n        verifiers.push(DelphinusVerifier(vaddr));\n        return cursor;\n    }\n\n    function _get_transaction(uint8 tid) private view returns (Transaction) {\n        require(transactions.length > tid, \"TX index out of bound\");\n        return transactions[tid];\n    }\n\n    function _get_verifier(uint8 vid) private view returns (DelphinusVerifier) {\n        require(verifiers.length > vid, \"Verifier index out of bound\");\n        return verifiers[vid];\n    }\n\n    /* encode the l1 address into token_uid */\n    function _l1_address(address account) private view returns (uint256) {\n        return\n            (uint256(uint160(account))) +\n            (uint256(_proxy_info.chain_id) << 160);\n    }\n\n    function _is_local(uint256 l1address) private view returns (bool) {\n        return ((l1address >> 160) == (uint256(_proxy_info.chain_id)));\n    }\n\n    function deposit(\n        address token,\n        uint256 amount,\n        uint256 l2account\n    ) public {\n        IERC20 underlying_token = IERC20(token);\n        uint256 token_uid = _l1_address(token);\n        require(_tmap[token_uid] == true, \"Deposit: Untracked Token\");\n        uint256 balance = underlying_token.balanceOf(msg.sender);\n        require(balance >= amount, \"Insufficient Balance\");\n        //USDT does not follow ERC20 interface so have to use the following safer method\n        TransferHelper.safeTransferFrom(address(underlying_token), msg.sender, address(this), amount);\n        emit Deposit(_l1_address(token), l2account, amount);\n    }\n\n    /*\n     * @dev side effect encoded in the update function\n     * deltas = [| opcode; args |]\n     */\n    function _update_state(uint256[] memory deltas) private {\n        uint256 cursor = 0;\n        while (cursor < deltas.length) {\n            uint256 delta_code = deltas[cursor];\n            if (delta_code == _WITHDRAW) {\n                require(\n                    deltas.length >= cursor + 4,\n                    \"Withdraw: Insufficient arg number\"\n                );\n                _withdraw(\n                    uint128(deltas[cursor + 1]),\n                    uint128(deltas[cursor + 2]),\n                    deltas[cursor + 3]\n                );\n                cursor = cursor + 4;\n            } else {\n                revert(\"SideEffect: UnknownSideEffectCode\");\n            }\n        }\n    }\n\n    uint256 constant BATCH_SIZE = 10;\n    uint256 constant OP_SIZE = 81; // 81 bytes\n\n    function perform_txs(\n        bytes calldata tx_data\n    ) public returns (uint256){\n        uint256 ret = 0; \n        for (uint i = 0; i < BATCH_SIZE; i++) {\n            uint8 op_code = uint8(tx_data[i * OP_SIZE]);\n            require(transactions.length > op_code, \"TX index out of bound\");\n            if (hasSideEffiect[op_code]) {\n                Transaction transaction = _get_transaction(op_code);\n                uint256[] memory update = transaction.sideEffect(tx_data, i * OP_SIZE + 1);\n                ret = 1;\n                _update_state(update);\n            }\n        }\n        return ret;\n    }\n\n    /*\n     * @dev Data encodes the delta functions with there verification in reverse order\n     * data = opcode args; opcode' args'; ....\n     */\n    function verify(\n        bytes calldata tx_data,\n        uint256[] calldata proof,\n        uint256[] calldata verify_instance,\n        uint256[] calldata aux,\n        uint256[][] calldata instances,\n        uint8 _vid,\n        uint256 _rid\n    ) public {\n        require(rid == _rid, \"Verify: Unexpected Request Id\");\n\n        // [0]: old root, [1]: new root, [2]: sha_low, [3]: sha_high\n\n        require(\n            tx_data.length == OP_SIZE * BATCH_SIZE,\n            \"Verify: Insufficient delta operations\"\n        );\n\n        uint256 sha_pack = uint256(sha256(tx_data));\n        require(\n            sha_pack == (instances[0][2] << 128) + instances[0][3],\n            \"Inconstant: Sha data inconsistant\"\n        );\n\n        require(\n            merkle_root == instances[0][0],\n            \"Inconstant: Merkle root dismatch\"\n        );\n\n        DelphinusVerifier verifier = _get_verifier(_vid);\n        verifier.verify(proof, verify_instance, aux, instances);\n        \n        uint256 sideEffectCalled = perform_txs(tx_data);\n\n        uint256 new_merkle_root = instances[0][1];\n        merkle_root = new_merkle_root;\n        rid = _rid + BATCH_SIZE;\n        emit Ack(_rid, sideEffectCalled);\n    }\n}\n",
  "sourcePath": "/home/ruilaizhang/work/zkWasm-protocol/contracts/Proxy.sol",
  "compiler": {
    "name": "solc",
    "version": "0.8.15+commit.e14f2714.Linux.g++"
  },
  "schemaVersion": "3.4.13",
  "updatedAt": "2023-03-24T00:29:39.741Z",
  "networkType": "ethereum",
  "devdoc": {
    "kind": "dev",
    "methods": {
      "getProxyInfo()": {
        "details": "snark verification stub"
      }
    },
    "version": 1
  },
  "userdoc": {
    "kind": "user",
    "methods": {},
    "version": 1
  }
}