{
  "contractName": "Retrive",
  "abi": [
    {
      "inputs": [
        {
          "internalType": "bytes",
          "name": "",
          "type": "bytes"
        },
        {
          "internalType": "uint256",
          "name": "",
          "type": "uint256"
        }
      ],
      "name": "sideEffect",
      "outputs": [
        {
          "internalType": "uint256[]",
          "name": "",
          "type": "uint256[]"
        }
      ],
      "stateMutability": "pure",
      "type": "function",
      "constant": true
    }
  ],
  "bytecode": "0x608060405234801561001057600080fd5b5061015b806100206000396000f3fe608060405234801561001057600080fd5b506004361061002b5760003560e01c80634ab51c0314610030575b600080fd5b61005461003e36600461006a565b5050604080516000815260208101909152919050565b60405161006191906100e1565b60405180910390f35b60008060006040848603121561007f57600080fd5b83356001600160401b038082111561009657600080fd5b818601915086601f8301126100aa57600080fd5b8135818111156100b957600080fd5b8760208285010111156100cb57600080fd5b6020928301989097509590910135949350505050565b6020808252825182820181905260009190848201906040850190845b81811015610119578351835292840192918401916001016100fd565b5090969550505050505056fea26469706673582212206fe75755ee522e3186fbca423aab0f911ebe6abbe9f232dab00a41c2118ce1ad64736f6c63430008110033",
  "immutableReferences": {},
  "source": "// SPDX-License-Identifier: UNLICENSED\npragma solidity ^0.8.0;\nimport \"../Transaction.sol\";\ncontract Retrive is Transaction{\n\n  function sideEffect(bytes calldata, uint) public pure override\n    returns (uint256[] memory) {\n    return new uint256[](0);\n  }\n}\n",
  "sourcePath": "/home/yyu/git/zkWasm-protocol/contracts/actions/Retrive.sol",
  "compiler": {
    "name": "solc",
    "version": "0.8.17+commit.8df45f5f.Linux.g++"
  },
  "schemaVersion": "3.4.13",
  "updatedAt": "2023-03-29T06:08:11.773Z",
  "networkType": "ethereum",
  "devdoc": {
    "kind": "dev",
    "methods": {},
    "version": 1
  },
  "userdoc": {
    "kind": "user",
    "methods": {},
    "version": 1
  }
}