{
  "contractName": "Token",
  "abi": [
    {
      "inputs": [],
      "stateMutability": "nonpayable",
      "type": "constructor"
    },
    {
      "anonymous": false,
      "inputs": [
        {
          "indexed": true,
          "internalType": "address",
          "name": "owner",
          "type": "address"
        },
        {
          "indexed": true,
          "internalType": "address",
          "name": "spender",
          "type": "address"
        },
        {
          "indexed": false,
          "internalType": "uint256",
          "name": "value",
          "type": "uint256"
        }
      ],
      "name": "Approval",
      "type": "event"
    },
    {
      "anonymous": false,
      "inputs": [
        {
          "indexed": true,
          "internalType": "address",
          "name": "from",
          "type": "address"
        },
        {
          "indexed": true,
          "internalType": "address",
          "name": "to",
          "type": "address"
        },
        {
          "indexed": false,
          "internalType": "uint256",
          "name": "value",
          "type": "uint256"
        }
      ],
      "name": "Transfer",
      "type": "event"
    },
    {
      "inputs": [
        {
          "internalType": "address",
          "name": "owner",
          "type": "address"
        },
        {
          "internalType": "address",
          "name": "spender",
          "type": "address"
        }
      ],
      "name": "allowance",
      "outputs": [
        {
          "internalType": "uint256",
          "name": "",
          "type": "uint256"
        }
      ],
      "stateMutability": "view",
      "type": "function",
      "constant": true
    },
    {
      "inputs": [
        {
          "internalType": "address",
          "name": "spender",
          "type": "address"
        },
        {
          "internalType": "uint256",
          "name": "amount",
          "type": "uint256"
        }
      ],
      "name": "approve",
      "outputs": [
        {
          "internalType": "bool",
          "name": "",
          "type": "bool"
        }
      ],
      "stateMutability": "nonpayable",
      "type": "function"
    },
    {
      "inputs": [
        {
          "internalType": "address",
          "name": "account",
          "type": "address"
        }
      ],
      "name": "balanceOf",
      "outputs": [
        {
          "internalType": "uint256",
          "name": "",
          "type": "uint256"
        }
      ],
      "stateMutability": "view",
      "type": "function",
      "constant": true
    },
    {
      "inputs": [],
      "name": "decimals",
      "outputs": [
        {
          "internalType": "uint8",
          "name": "",
          "type": "uint8"
        }
      ],
      "stateMutability": "view",
      "type": "function",
      "constant": true
    },
    {
      "inputs": [
        {
          "internalType": "address",
          "name": "spender",
          "type": "address"
        },
        {
          "internalType": "uint256",
          "name": "subtractedValue",
          "type": "uint256"
        }
      ],
      "name": "decreaseAllowance",
      "outputs": [
        {
          "internalType": "bool",
          "name": "",
          "type": "bool"
        }
      ],
      "stateMutability": "nonpayable",
      "type": "function"
    },
    {
      "inputs": [
        {
          "internalType": "address",
          "name": "spender",
          "type": "address"
        },
        {
          "internalType": "uint256",
          "name": "addedValue",
          "type": "uint256"
        }
      ],
      "name": "increaseAllowance",
      "outputs": [
        {
          "internalType": "bool",
          "name": "",
          "type": "bool"
        }
      ],
      "stateMutability": "nonpayable",
      "type": "function"
    },
    {
      "inputs": [],
      "name": "name",
      "outputs": [
        {
          "internalType": "string",
          "name": "",
          "type": "string"
        }
      ],
      "stateMutability": "view",
      "type": "function",
      "constant": true
    },
    {
      "inputs": [],
      "name": "symbol",
      "outputs": [
        {
          "internalType": "string",
          "name": "",
          "type": "string"
        }
      ],
      "stateMutability": "view",
      "type": "function",
      "constant": true
    },
    {
      "inputs": [],
      "name": "totalSupply",
      "outputs": [
        {
          "internalType": "uint256",
          "name": "",
          "type": "uint256"
        }
      ],
      "stateMutability": "view",
      "type": "function",
      "constant": true
    },
    {
      "inputs": [
        {
          "internalType": "address",
          "name": "to",
          "type": "address"
        },
        {
          "internalType": "uint256",
          "name": "amount",
          "type": "uint256"
        }
      ],
      "name": "transfer",
      "outputs": [
        {
          "internalType": "bool",
          "name": "",
          "type": "bool"
        }
      ],
      "stateMutability": "nonpayable",
      "type": "function"
    },
    {
      "inputs": [
        {
          "internalType": "address",
          "name": "from",
          "type": "address"
        },
        {
          "internalType": "address",
          "name": "to",
          "type": "address"
        },
        {
          "internalType": "uint256",
          "name": "amount",
          "type": "uint256"
        }
      ],
      "name": "transferFrom",
      "outputs": [
        {
          "internalType": "bool",
          "name": "",
          "type": "bool"
        }
      ],
      "stateMutability": "nonpayable",
      "type": "function"
    },
    {
      "inputs": [
        {
          "internalType": "uint256",
          "name": "amount",
          "type": "uint256"
        }
      ],
      "name": "mint",
      "outputs": [],
      "stateMutability": "nonpayable",
      "type": "function"
    },
    {
      "inputs": [],
      "name": "getBalance",
      "outputs": [
        {
          "internalType": "uint256",
          "name": "",
          "type": "uint256"
        }
      ],
      "stateMutability": "view",
      "type": "function",
      "constant": true
    }
  ],
  "bytecode": "0x608060405234801561001057600080fd5b506040518060400160405280600a8152602001692a32b9ba102a37b5b2b760b11b815250604051806040016040528060098152602001682a32b9ba2a37b5b2b760b91b81525081600390816100659190610119565b5060046100728282610119565b5050506101d8565b634e487b7160e01b600052604160045260246000fd5b600181811c908216806100a457607f821691505b6020821081036100c457634e487b7160e01b600052602260045260246000fd5b50919050565b601f82111561011457600081815260208120601f850160051c810160208610156100f15750805b601f850160051c820191505b81811015610110578281556001016100fd565b5050505b505050565b81516001600160401b038111156101325761013261007a565b610146816101408454610090565b846100ca565b602080601f83116001811461017b57600084156101635750858301515b600019600386901b1c1916600185901b178555610110565b600085815260208120601f198616915b828110156101aa5788860151825594840194600190910190840161018b565b50858210156101c85787850151600019600388901b60f8161c191681555b5050505050600190811b01905550565b610979806101e76000396000f3fe608060405234801561001057600080fd5b50600436106100af5760003560e01c806306fdde03146100b4578063095ea7b3146100d257806312065fe0146100f557806318160ddd1461010b57806323b872dd14610113578063313ce56714610126578063395093511461013557806370a082311461014857806395d89b411461015b578063a0712d6814610163578063a457c2d714610178578063a9059cbb1461018b578063dd62ed3e1461019e575b600080fd5b6100bc6101b1565b6040516100c9919061077e565b60405180910390f35b6100e56100e03660046107ef565b610243565b60405190151581526020016100c9565b6100fd61025b565b6040519081526020016100c9565b6002546100fd565b6100e5610121366004610819565b61026b565b604051601281526020016100c9565b6100e56101433660046107ef565b61028f565b6100fd610156366004610855565b6102b1565b6100bc6102cc565b610176610171366004610877565b6102db565b005b6100e56101863660046107ef565b6102e8565b6100e56101993660046107ef565b610368565b6100fd6101ac366004610890565b610376565b6060600380546101c0906108c3565b80601f01602080910402602001604051908101604052809291908181526020018280546101ec906108c3565b80156102395780601f1061020e57610100808354040283529160200191610239565b820191906000526020600020905b81548152906001019060200180831161021c57829003601f168201915b5050505050905090565b6000336102518185856103a1565b5060019392505050565b6000610266336102b1565b905090565b6000336102798582856104c5565b61028485858561053f565b506001949350505050565b6000336102518185856102a28383610376565b6102ac91906108fd565b6103a1565b6001600160a01b031660009081526020819052604090205490565b6060600480546101c0906108c3565b6102e533826106d1565b50565b600033816102f68286610376565b90508381101561035b5760405162461bcd60e51b815260206004820152602560248201527f45524332303a2064656372656173656420616c6c6f77616e63652062656c6f77604482015264207a65726f60d81b60648201526084015b60405180910390fd5b61028482868684036103a1565b60003361025181858561053f565b6001600160a01b03918216600090815260016020908152604080832093909416825291909152205490565b6001600160a01b0383166104035760405162461bcd60e51b8152602060048201526024808201527f45524332303a20617070726f76652066726f6d20746865207a65726f206164646044820152637265737360e01b6064820152608401610352565b6001600160a01b0382166104645760405162461bcd60e51b815260206004820152602260248201527f45524332303a20617070726f766520746f20746865207a65726f206164647265604482015261737360f01b6064820152608401610352565b6001600160a01b0383811660008181526001602090815260408083209487168084529482529182902085905590518481527f8c5be1e5ebec7d5bd14f71427d1e84f3dd0314c0f7b2291e5b200ac8c7c3b925910160405180910390a3505050565b60006104d18484610376565b90506000198114610539578181101561052c5760405162461bcd60e51b815260206004820152601d60248201527f45524332303a20696e73756666696369656e7420616c6c6f77616e63650000006044820152606401610352565b61053984848484036103a1565b50505050565b6001600160a01b0383166105a35760405162461bcd60e51b815260206004820152602560248201527f45524332303a207472616e736665722066726f6d20746865207a65726f206164604482015264647265737360d81b6064820152608401610352565b6001600160a01b0382166106055760405162461bcd60e51b815260206004820152602360248201527f45524332303a207472616e7366657220746f20746865207a65726f206164647260448201526265737360e81b6064820152608401610352565b6001600160a01b0383166000908152602081905260409020548181101561067d5760405162461bcd60e51b815260206004820152602660248201527f45524332303a207472616e7366657220616d6f756e7420657863656564732062604482015265616c616e636560d01b6064820152608401610352565b6001600160a01b0384811660008181526020818152604080832087870390559387168083529184902080548701905592518581529092600080516020610924833981519152910160405180910390a3610539565b6001600160a01b0382166107275760405162461bcd60e51b815260206004820152601f60248201527f45524332303a206d696e7420746f20746865207a65726f2061646472657373006044820152606401610352565b806002600082825461073991906108fd565b90915550506001600160a01b03821660008181526020818152604080832080548601905551848152600080516020610924833981519152910160405180910390a35050565b600060208083528351808285015260005b818110156107ab5785810183015185820160400152820161078f565b818111156107bd576000604083870101525b50601f01601f1916929092016040019392505050565b80356001600160a01b03811681146107ea57600080fd5b919050565b6000806040838503121561080257600080fd5b61080b836107d3565b946020939093013593505050565b60008060006060848603121561082e57600080fd5b610837846107d3565b9250610845602085016107d3565b9150604084013590509250925092565b60006020828403121561086757600080fd5b610870826107d3565b9392505050565b60006020828403121561088957600080fd5b5035919050565b600080604083850312156108a357600080fd5b6108ac836107d3565b91506108ba602084016107d3565b90509250929050565b600181811c908216806108d757607f821691505b6020821081036108f757634e487b7160e01b600052602260045260246000fd5b50919050565b6000821982111561091e57634e487b7160e01b600052601160045260246000fd5b50019056feddf252ad1be2c89b69c2b068fc378daa952ba7f163c4a11628f55a4df523b3efa2646970667358221220811f842cfe15ecd4c2e43b00e4c519d0ec8802a07fc3f56c070847b92bea489464736f6c634300080f0033",
  "immutableReferences": {},
  "source": "// SPDX-License-Identifier: UNLICENSED\npragma solidity ^0.8.0;\nimport \"@openzeppelin/contracts/token/ERC20/ERC20.sol\";\nimport \"@openzeppelin/contracts/utils/Counters.sol\";\ncontract Token is ERC20{\n  constructor() ERC20(\"Test Token\", \"TestToken\") {}\n  function mint(uint256 amount) public {\n    _mint(msg.sender, amount);\n  }\n  function getBalance() public view returns (uint256) {\n    return balanceOf(msg.sender);\n  }\n}\n",
  "sourcePath": "/home/ruilaizhang/work/zkWasm-protocol/contracts/Token.sol",
  "compiler": {
    "name": "solc",
    "version": "0.8.15+commit.e14f2714.Linux.g++"
  },
  "schemaVersion": "3.4.13",
  "updatedAt": "2023-03-24T00:31:50.071Z",
  "networkType": "ethereum",
  "devdoc": {
    "kind": "dev",
    "methods": {
      "allowance(address,address)": {
        "details": "See {IERC20-allowance}."
      },
      "approve(address,uint256)": {
        "details": "See {IERC20-approve}. NOTE: If `amount` is the maximum `uint256`, the allowance is not updated on `transferFrom`. This is semantically equivalent to an infinite approval. Requirements: - `spender` cannot be the zero address."
      },
      "balanceOf(address)": {
        "details": "See {IERC20-balanceOf}."
      },
      "decimals()": {
        "details": "Returns the number of decimals used to get its user representation. For example, if `decimals` equals `2`, a balance of `505` tokens should be displayed to a user as `5.05` (`505 / 10 ** 2`). Tokens usually opt for a value of 18, imitating the relationship between Ether and Wei. This is the value {ERC20} uses, unless this function is overridden; NOTE: This information is only used for _display_ purposes: it in no way affects any of the arithmetic of the contract, including {IERC20-balanceOf} and {IERC20-transfer}."
      },
      "decreaseAllowance(address,uint256)": {
        "details": "Atomically decreases the allowance granted to `spender` by the caller. This is an alternative to {approve} that can be used as a mitigation for problems described in {IERC20-approve}. Emits an {Approval} event indicating the updated allowance. Requirements: - `spender` cannot be the zero address. - `spender` must have allowance for the caller of at least `subtractedValue`."
      },
      "increaseAllowance(address,uint256)": {
        "details": "Atomically increases the allowance granted to `spender` by the caller. This is an alternative to {approve} that can be used as a mitigation for problems described in {IERC20-approve}. Emits an {Approval} event indicating the updated allowance. Requirements: - `spender` cannot be the zero address."
      },
      "name()": {
        "details": "Returns the name of the token."
      },
      "symbol()": {
        "details": "Returns the symbol of the token, usually a shorter version of the name."
      },
      "totalSupply()": {
        "details": "See {IERC20-totalSupply}."
      },
      "transfer(address,uint256)": {
        "details": "See {IERC20-transfer}. Requirements: - `to` cannot be the zero address. - the caller must have a balance of at least `amount`."
      },
      "transferFrom(address,address,uint256)": {
        "details": "See {IERC20-transferFrom}. Emits an {Approval} event indicating the updated allowance. This is not required by the EIP. See the note at the beginning of {ERC20}. NOTE: Does not update the allowance if the current allowance is the maximum `uint256`. Requirements: - `from` and `to` cannot be the zero address. - `from` must have a balance of at least `amount`. - the caller must have allowance for ``from``'s tokens of at least `amount`."
      }
    },
    "version": 1
  },
  "userdoc": {
    "kind": "user",
    "methods": {},
    "version": 1
  }
}