{
  "contractName": "Withdraw",
  "abi": [
    {
      "inputs": [
        {
          "internalType": "bytes",
          "name": "witness",
          "type": "bytes"
        },
        {
          "internalType": "uint256",
          "name": "cursor",
          "type": "uint256"
        }
      ],
      "name": "sideEffect",
      "outputs": [
        {
          "internalType": "uint256[]",
          "name": "",
          "type": "uint256[]"
        }
      ],
      "stateMutability": "pure",
      "type": "function",
      "constant": true
    }
  ],
  "bytecode": "0x608060405234801561001057600080fd5b50610384806100206000396000f3fe608060405234801561001057600080fd5b506004361061002b5760003560e01c80634ab51c0314610030575b600080fd5b61004361003e3660046101ed565b610059565b60405161005091906102a1565b60405180910390f35b60408051600480825260a08201909252606091600091906020820160808036833701905050905060006100988561009186600e6102fb565b6002610157565b905060006100b2866100ab8760106102fb565b6020610157565b905060006100c5876100ab8860306102fb565b9050600160ff16846000815181106100df576100df61030e565b60200260200101818152505082846001815181106100ff576100ff61030e565b602002602001018181525050818460028151811061011f5761011f61030e565b602002602001018181525050808460038151811061013f5761013f61030e565b60209081029190910101525091925050505b92915050565b60006101648360206102fb565b845110156101af5760405162461bcd60e51b8152602060048201526014602482015273736c6963696e67206f7574206f662072616e676560601b604482015260640160405180910390fd5b6020838501810151906101c3908490610324565b6101ce906008610337565b1c949350505050565b634e487b7160e01b600052604160045260246000fd5b6000806040838503121561020057600080fd5b82356001600160401b038082111561021757600080fd5b818501915085601f83011261022b57600080fd5b81358181111561023d5761023d6101d7565b604051601f8201601f19908116603f01168101908382118183101715610265576102656101d7565b8160405282815288602084870101111561027e57600080fd5b826020860160208301376000602093820184015298969091013596505050505050565b6020808252825182820181905260009190848201906040850190845b818110156102d9578351835292840192918401916001016102bd565b50909695505050505050565b634e487b7160e01b600052601160045260246000fd5b80820180821115610151576101516102e5565b634e487b7160e01b600052603260045260246000fd5b81810381811115610151576101516102e5565b8082028115828204841417610151576101516102e556fea2646970667358221220ac70be8263c6c7e15cca97f94423afac5951ad36da5c58afdc0f5268680db22d64736f6c63430008110033",
  "immutableReferences": {},
  "source": "// SPDX-License-Identifier: UNLICENSED\npragma solidity ^0.8.0;\nimport \"../Transaction.sol\";\n\ncontract Withdraw is Transaction {\n    function bytesToUint(bytes memory bs, uint256 start, uint256 len)\n        internal\n        pure\n        returns (uint256)\n    {\n        require(bs.length >= start + 32, \"slicing out of range\");\n        uint256 x;\n        assembly {\n            x := mload(add(bs, add(start, 0x20)))\n        }\n        return x >> (32 - len) * 8;\n    }\n\n    function sideEffect(bytes memory witness, uint256 cursor)\n        public\n        pure\n        override\n        returns (uint256[] memory)\n    {\n        uint256[] memory ops = new uint256[](4);\n        uint256 tokenIdx = bytesToUint(witness, cursor + 14, 2);\n        uint256 transferAmount = bytesToUint(witness, cursor + 16, 32);\n        uint256 l1recipent = bytesToUint(witness, cursor + 48, 32);\n\n        ops[0] = _WITHDRAW;\n        ops[1] = tokenIdx;\n        ops[2] = transferAmount;\n        ops[3] = l1recipent;\n        return ops;\n    }\n}\n",
  "sourcePath": "/home/yyu/git/zkWasm-protocol/contracts/actions/Withdraw.sol",
  "compiler": {
    "name": "solc",
    "version": "0.8.17+commit.8df45f5f.Linux.g++"
  },
  "schemaVersion": "3.4.13",
  "updatedAt": "2023-03-29T06:08:11.764Z",
  "networkType": "ethereum",
  "devdoc": {
    "kind": "dev",
    "methods": {},
    "version": 1
  },
  "userdoc": {
    "kind": "user",
    "methods": {},
    "version": 1
  }
}